{
  "_format": "hh-sol-artifact-1",
  "contractName": "WeiCardsWrapper",
  "sourceName": "contracts/WeiCardsWrapper.sol",
  "abi": [
    {
      "inputs": [],
      "stateMutability": "nonpayable",
      "type": "constructor"
    },
    {
      "anonymous": false,
      "inputs": [
        {
          "indexed": true,
          "internalType": "address",
          "name": "owner",
          "type": "address"
        },
        {
          "indexed": true,
          "internalType": "address",
          "name": "approved",
          "type": "address"
        },
        {
          "indexed": true,
          "internalType": "uint256",
          "name": "tokenId",
          "type": "uint256"
        }
      ],
      "name": "Approval",
      "type": "event"
    },
    {
      "anonymous": false,
      "inputs": [
        {
          "indexed": true,
          "internalType": "address",
          "name": "owner",
          "type": "address"
        },
        {
          "indexed": true,
          "internalType": "address",
          "name": "operator",
          "type": "address"
        },
        {
          "indexed": false,
          "internalType": "bool",
          "name": "approved",
          "type": "bool"
        }
      ],
      "name": "ApprovalForAll",
      "type": "event"
    },
    {
      "anonymous": false,
      "inputs": [
        {
          "indexed": true,
          "internalType": "address",
          "name": "previousOwner",
          "type": "address"
        },
        {
          "indexed": true,
          "internalType": "address",
          "name": "newOwner",
          "type": "address"
        }
      ],
      "name": "OwnershipTransferred",
      "type": "event"
    },
    {
      "anonymous": false,
      "inputs": [
        {
          "indexed": true,
          "internalType": "address",
          "name": "from",
          "type": "address"
        },
        {
          "indexed": true,
          "internalType": "address",
          "name": "to",
          "type": "address"
        },
        {
          "indexed": true,
          "internalType": "uint256",
          "name": "tokenId",
          "type": "uint256"
        }
      ],
      "name": "Transfer",
      "type": "event"
    },
    {
      "anonymous": false,
      "inputs": [
        {
          "indexed": true,
          "internalType": "bytes32",
          "name": "fortressId",
          "type": "bytes32"
        },
        {
          "indexed": false,
          "internalType": "uint256",
          "name": "tokenId",
          "type": "uint256"
        }
      ],
      "name": "Unwrapped",
      "type": "event"
    },
    {
      "anonymous": false,
      "inputs": [
        {
          "indexed": true,
          "internalType": "bytes32",
          "name": "fortressId",
          "type": "bytes32"
        },
        {
          "indexed": false,
          "internalType": "uint256",
          "name": "tokenId",
          "type": "uint256"
        }
      ],
      "name": "Wrapped",
      "type": "event"
    },
    {
      "inputs": [
        {
          "internalType": "address",
          "name": "to",
          "type": "address"
        },
        {
          "internalType": "uint256",
          "name": "tokenId",
          "type": "uint256"
        }
      ],
      "name": "approve",
      "outputs": [],
      "stateMutability": "nonpayable",
      "type": "function"
    },
    {
      "inputs": [
        {
          "internalType": "address",
          "name": "owner",
          "type": "address"
        }
      ],
      "name": "balanceOf",
      "outputs": [
        {
          "internalType": "uint256",
          "name": "",
          "type": "uint256"
        }
      ],
      "stateMutability": "view",
      "type": "function"
    },
    {
      "inputs": [],
      "name": "baseTokenURI",
      "outputs": [
        {
          "internalType": "string",
          "name": "",
          "type": "string"
        }
      ],
      "stateMutability": "view",
      "type": "function"
    },
    {
      "inputs": [
        {
          "internalType": "uint8",
          "name": "cardId",
          "type": "uint8"
        }
      ],
      "name": "claimCard",
      "outputs": [],
      "stateMutability": "nonpayable",
      "type": "function"
    },
    {
      "inputs": [
        {
          "internalType": "uint256",
          "name": "",
          "type": "uint256"
        }
      ],
      "name": "claimed",
      "outputs": [
        {
          "internalType": "address",
          "name": "",
          "type": "address"
        }
      ],
      "stateMutability": "view",
      "type": "function"
    },
    {
      "inputs": [
        {
          "internalType": "uint8",
          "name": "cardId",
          "type": "uint8"
        },
        {
          "internalType": "string",
          "name": "title",
          "type": "string"
        },
        {
          "internalType": "string",
          "name": "url",
          "type": "string"
        },
        {
          "internalType": "string",
          "name": "image",
          "type": "string"
        }
      ],
      "name": "editCard",
      "outputs": [],
      "stateMutability": "nonpayable",
      "type": "function"
    },
    {
      "inputs": [
        {
          "internalType": "uint256",
          "name": "tokenId",
          "type": "uint256"
        }
      ],
      "name": "getApproved",
      "outputs": [
        {
          "internalType": "address",
          "name": "",
          "type": "address"
        }
      ],
      "stateMutability": "view",
      "type": "function"
    },
    {
      "inputs": [
        {
          "internalType": "address",
          "name": "owner",
          "type": "address"
        },
        {
          "internalType": "address",
          "name": "operator",
          "type": "address"
        }
      ],
      "name": "isApprovedForAll",
      "outputs": [
        {
          "internalType": "bool",
          "name": "",
          "type": "bool"
        }
      ],
      "stateMutability": "view",
      "type": "function"
    },
    {
      "inputs": [],
      "name": "name",
      "outputs": [
        {
          "internalType": "string",
          "name": "",
          "type": "string"
        }
      ],
      "stateMutability": "view",
      "type": "function"
    },
    {
      "inputs": [],
      "name": "owner",
      "outputs": [
        {
          "internalType": "address",
          "name": "",
          "type": "address"
        }
      ],
      "stateMutability": "view",
      "type": "function"
    },
    {
      "inputs": [
        {
          "internalType": "uint256",
          "name": "tokenId",
          "type": "uint256"
        }
      ],
      "name": "ownerOf",
      "outputs": [
        {
          "internalType": "address",
          "name": "",
          "type": "address"
        }
      ],
      "stateMutability": "view",
      "type": "function"
    },
    {
      "inputs": [],
      "name": "renounceOwnership",
      "outputs": [],
      "stateMutability": "nonpayable",
      "type": "function"
    },
    {
      "inputs": [
        {
          "internalType": "address",
          "name": "from",
          "type": "address"
        },
        {
          "internalType": "address",
          "name": "to",
          "type": "address"
        },
        {
          "internalType": "uint256",
          "name": "tokenId",
          "type": "uint256"
        }
      ],
      "name": "safeTransferFrom",
      "outputs": [],
      "stateMutability": "nonpayable",
      "type": "function"
    },
    {
      "inputs": [
        {
          "internalType": "address",
          "name": "from",
          "type": "address"
        },
        {
          "internalType": "address",
          "name": "to",
          "type": "address"
        },
        {
          "internalType": "uint256",
          "name": "tokenId",
          "type": "uint256"
        },
        {
          "internalType": "bytes",
          "name": "_data",
          "type": "bytes"
        }
      ],
      "name": "safeTransferFrom",
      "outputs": [],
      "stateMutability": "nonpayable",
      "type": "function"
    },
    {
      "inputs": [
        {
          "internalType": "address",
          "name": "operator",
          "type": "address"
        },
        {
          "internalType": "bool",
          "name": "approved",
          "type": "bool"
        }
      ],
      "name": "setApprovalForAll",
      "outputs": [],
      "stateMutability": "nonpayable",
      "type": "function"
    },
    {
      "inputs": [
        {
          "internalType": "bytes4",
          "name": "interfaceId",
          "type": "bytes4"
        }
      ],
      "name": "supportsInterface",
      "outputs": [
        {
          "internalType": "bool",
          "name": "",
          "type": "bool"
        }
      ],
      "stateMutability": "view",
      "type": "function"
    },
    {
      "inputs": [],
      "name": "symbol",
      "outputs": [
        {
          "internalType": "string",
          "name": "",
          "type": "string"
        }
      ],
      "stateMutability": "view",
      "type": "function"
    },
    {
      "inputs": [
        {
          "internalType": "uint256",
          "name": "index",
          "type": "uint256"
        }
      ],
      "name": "tokenByIndex",
      "outputs": [
        {
          "internalType": "uint256",
          "name": "",
          "type": "uint256"
        }
      ],
      "stateMutability": "view",
      "type": "function"
    },
    {
      "inputs": [
        {
          "internalType": "address",
          "name": "owner",
          "type": "address"
        },
        {
          "internalType": "uint256",
          "name": "index",
          "type": "uint256"
        }
      ],
      "name": "tokenOfOwnerByIndex",
      "outputs": [
        {
          "internalType": "uint256",
          "name": "",
          "type": "uint256"
        }
      ],
      "stateMutability": "view",
      "type": "function"
    },
    {
      "inputs": [
        {
          "internalType": "uint256",
          "name": "_tokenId",
          "type": "uint256"
        }
      ],
      "name": "tokenURI",
      "outputs": [
        {
          "internalType": "string",
          "name": "",
          "type": "string"
        }
      ],
      "stateMutability": "view",
      "type": "function"
    },
    {
      "inputs": [],
      "name": "totalSupply",
      "outputs": [
        {
          "internalType": "uint256",
          "name": "",
          "type": "uint256"
        }
      ],
      "stateMutability": "view",
      "type": "function"
    },
    {
      "inputs": [
        {
          "internalType": "address",
          "name": "from",
          "type": "address"
        },
        {
          "internalType": "address",
          "name": "to",
          "type": "address"
        },
        {
          "internalType": "uint256",
          "name": "tokenId",
          "type": "uint256"
        }
      ],
      "name": "transferFrom",
      "outputs": [],
      "stateMutability": "nonpayable",
      "type": "function"
    },
    {
      "inputs": [
        {
          "internalType": "address",
          "name": "newOwner",
          "type": "address"
        }
      ],
      "name": "transferOwnership",
      "outputs": [],
      "stateMutability": "nonpayable",
      "type": "function"
    },
    {
      "inputs": [
        {
          "internalType": "uint8",
          "name": "cardId",
          "type": "uint8"
        }
      ],
      "name": "unwrap",
      "outputs": [],
      "stateMutability": "nonpayable",
      "type": "function"
    },
    {
      "inputs": [],
      "name": "weiCardsContract",
      "outputs": [
        {
          "internalType": "contract WeiCards",
          "name": "",
          "type": "address"
        }
      ],
      "stateMutability": "view",
      "type": "function"
    },
    {
      "inputs": [
        {
          "internalType": "uint8",
          "name": "cardId",
          "type": "uint8"
        }
      ],
      "name": "wrap",
      "outputs": [],
      "stateMutability": "nonpayable",
      "type": "function"
    }
  ],
  "bytecode": "0x60806040527338e73e2ac25904c02c59386eff8bad4f5054ebe7600d60006101000a81548173ffffffffffffffffffffffffffffffffffffffff021916908373ffffffffffffffffffffffffffffffffffffffff1602179055506040518060400160405280601281526020017f68747470733a2f2f7765692e63617264732f0000000000000000000000000000815250600e9080519060200190620000a692919062000249565b50348015620000b457600080fd5b506040518060400160405280601081526020017f57726170706564205765694361726473000000000000000000000000000000008152506040518060400160405280600381526020017f575743000000000000000000000000000000000000000000000000000000000081525081600090805190602001906200013992919062000249565b5080600190805190602001906200015292919062000249565b50505062000175620001696200017b60201b60201c565b6200018360201b60201c565b6200035e565b600033905090565b6000600a60009054906101000a900473ffffffffffffffffffffffffffffffffffffffff16905081600a60006101000a81548173ffffffffffffffffffffffffffffffffffffffff021916908373ffffffffffffffffffffffffffffffffffffffff1602179055508173ffffffffffffffffffffffffffffffffffffffff168173ffffffffffffffffffffffffffffffffffffffff167f8be0079c531659141344cd1fd0a4f28419497f9722a3daafe3b4186f6b6457e060405160405180910390a35050565b8280546200025790620002f9565b90600052602060002090601f0160209004810192826200027b5760008555620002c7565b82601f106200029657805160ff1916838001178555620002c7565b82800160010185558215620002c7579182015b82811115620002c6578251825591602001919060010190620002a9565b5b509050620002d69190620002da565b5090565b5b80821115620002f5576000816000905550600101620002db565b5090565b600060028204905060018216806200031257607f821691505b602082108114156200032957620003286200032f565b5b50919050565b7f4e487b7100000000000000000000000000000000000000000000000000000000600052602260045260246000fd5b6140de806200036e6000396000f3fe608060405234801561001057600080fd5b506004361061018e5760003560e01c8063715018a6116100de578063a22cb46511610097578063d547cfb711610071578063d547cfb71461047f578063dbe7e3bd1461049d578063e985e9c5146104cd578063f2fde38b146104fd5761018e565b8063a22cb46514610417578063b88d4fde14610433578063c87b56dd1461044f5761018e565b8063715018a61461037d5780638014f238146103875780638da5cb5b146103a3578063936b9939146103c157806395d89b41146103dd57806399d776ef146103fb5761018e565b80632f745c591161014b5780634f6ccce7116101255780634f6ccce7146102d157806351e2eacd146103015780636352211e1461031d57806370a082311461034d5761018e565b80632f745c5914610267578063415236511461029757806342842e0e146102b55761018e565b806301ffc9a71461019357806306fdde03146101c3578063081812fc146101e1578063095ea7b31461021157806318160ddd1461022d57806323b872dd1461024b575b600080fd5b6101ad60048036038101906101a89190612b84565b610519565b6040516101ba91906132ec565b60405180910390f35b6101cb610593565b6040516101d89190613322565b60405180910390f35b6101fb60048036038101906101f69190612bde565b610625565b604051610208919061325c565b60405180910390f35b61022b60048036038101906102269190612b17565b6106aa565b005b6102356107c2565b60405161024291906135c4565b60405180910390f35b61026560048036038101906102609190612a01565b6107cf565b005b610281600480360381019061027c9190612b17565b61082f565b60405161028e91906135c4565b60405180910390f35b61029f6108d4565b6040516102ac9190613307565b60405180910390f35b6102cf60048036038101906102ca9190612a01565b6108fa565b005b6102eb60048036038101906102e69190612bde565b61091a565b6040516102f891906135c4565b60405180910390f35b61031b60048036038101906103169190612c0b565b61098b565b005b61033760048036038101906103329190612bde565b610bbd565b604051610344919061325c565b60405180910390f35b61036760048036038101906103629190612994565b610c6f565b60405161037491906135c4565b60405180910390f35b610385610d27565b005b6103a1600480360381019061039c9190612d19565b610daf565b005b6103ab610eeb565b6040516103b8919061325c565b60405180910390f35b6103db60048036038101906103d69190612c0b565b610f15565b005b6103e561104d565b6040516103f29190613322565b60405180910390f35b61041560048036038101906104109190612c0b565b6110df565b005b610431600480360381019061042c9190612ad7565b61125f565b005b61044d60048036038101906104489190612a54565b6113e0565b005b61046960048036038101906104649190612bde565b611442565b6040516104769190613322565b60405180910390f35b610487611476565b6040516104949190613322565b60405180910390f35b6104b760048036038101906104b29190612bde565b611504565b6040516104c4919061325c565b60405180910390f35b6104e760048036038101906104e291906129c1565b611537565b6040516104f491906132ec565b60405180910390f35b61051760048036038101906105129190612994565b6115cb565b005b60007f780e9d63000000000000000000000000000000000000000000000000000000007bffffffffffffffffffffffffffffffffffffffffffffffffffffffff1916827bffffffffffffffffffffffffffffffffffffffffffffffffffffffff1916148061058c575061058b826116c3565b5b9050919050565b6060600080546105a2906138ed565b80601f01602080910402602001604051908101604052809291908181526020018280546105ce906138ed565b801561061b5780601f106105f05761010080835404028352916020019161061b565b820191906000526020600020905b8154815290600101906020018083116105fe57829003601f168201915b5050505050905090565b6000610630826117a5565b61066f576040517f08c379a0000000000000000000000000000000000000000000000000000000008152600401610666906134c4565b60405180910390fd5b6004600083815260200190815260200160002060009054906101000a900473ffffffffffffffffffffffffffffffffffffffff169050919050565b60006106b582610bbd565b90508073ffffffffffffffffffffffffffffffffffffffff168373ffffffffffffffffffffffffffffffffffffffff161415610726576040517f08c379a000000000000000000000000000000000000000000000000000000000815260040161071d90613524565b60405180910390fd5b8073ffffffffffffffffffffffffffffffffffffffff16610745611811565b73ffffffffffffffffffffffffffffffffffffffff16148061077457506107738161076e611811565b611537565b5b6107b3576040517f08c379a00000000000000000000000000000000000000000000000000000000081526004016107aa90613444565b60405180910390fd5b6107bd8383611819565b505050565b6000600880549050905090565b6107e06107da611811565b826118d2565b61081f576040517f08c379a000000000000000000000000000000000000000000000000000000000815260040161081690613544565b60405180910390fd5b61082a8383836119b0565b505050565b600061083a83610c6f565b821061087b576040517f08c379a000000000000000000000000000000000000000000000000000000000815260040161087290613364565b60405180910390fd5b600660008473ffffffffffffffffffffffffffffffffffffffff1673ffffffffffffffffffffffffffffffffffffffff168152602001908152602001600020600083815260200190815260200160002054905092915050565b600d60009054906101000a900473ffffffffffffffffffffffffffffffffffffffff1681565b610915838383604051806020016040528060008152506113e0565b505050565b60006109246107c2565b8210610965576040517f08c379a000000000000000000000000000000000000000000000000000000000815260040161095c90613584565b60405180910390fd5b6008828154811061097957610978613a86565b5b90600052602060002001549050919050565b3373ffffffffffffffffffffffffffffffffffffffff16600c60008360ff16815260200190815260200160002060009054906101000a900473ffffffffffffffffffffffffffffffffffffffff1673ffffffffffffffffffffffffffffffffffffffff1614610a2f576040517f08c379a0000000000000000000000000000000000000000000000000000000008152600401610a2690613564565b60405180910390fd5b6000600d60009054906101000a900473ffffffffffffffffffffffffffffffffffffffff1673ffffffffffffffffffffffffffffffffffffffff166309004eb1836040518263ffffffff1660e01b8152600401610a8c91906135df565b60006040518083038186803b158015610aa457600080fd5b505afa158015610ab8573d6000803e3d6000fd5b505050506040513d6000823e3d601f19601f82011682018060405250810190610ae19190612c38565b505050509150503073ffffffffffffffffffffffffffffffffffffffff168173ffffffffffffffffffffffffffffffffffffffff1614610b56576040517f08c379a0000000000000000000000000000000000000000000000000000000008152600401610b4d90613344565b60405180910390fd5b6000600c60008460ff16815260200190815260200160002060006101000a81548173ffffffffffffffffffffffffffffffffffffffff021916908373ffffffffffffffffffffffffffffffffffffffff160217905550610bb9338360ff16611c0c565b5050565b6000806002600084815260200190815260200160002060009054906101000a900473ffffffffffffffffffffffffffffffffffffffff169050600073ffffffffffffffffffffffffffffffffffffffff168173ffffffffffffffffffffffffffffffffffffffff161415610c66576040517f08c379a0000000000000000000000000000000000000000000000000000000008152600401610c5d90613484565b60405180910390fd5b80915050919050565b60008073ffffffffffffffffffffffffffffffffffffffff168273ffffffffffffffffffffffffffffffffffffffff161415610ce0576040517f08c379a0000000000000000000000000000000000000000000000000000000008152600401610cd790613464565b60405180910390fd5b600360008373ffffffffffffffffffffffffffffffffffffffff1673ffffffffffffffffffffffffffffffffffffffff168152602001908152602001600020549050919050565b610d2f611811565b73ffffffffffffffffffffffffffffffffffffffff16610d4d610eeb565b73ffffffffffffffffffffffffffffffffffffffff1614610da3576040517f08c379a0000000000000000000000000000000000000000000000000000000008152600401610d9a906134e4565b60405180910390fd5b610dad6000611dda565b565b3373ffffffffffffffffffffffffffffffffffffffff16610dd28860ff16610bbd565b73ffffffffffffffffffffffffffffffffffffffff1614610e28576040517f08c379a0000000000000000000000000000000000000000000000000000000008152600401610e1f906135a4565b60405180910390fd5b600d60009054906101000a900473ffffffffffffffffffffffffffffffffffffffff1673ffffffffffffffffffffffffffffffffffffffff16638014f238888888888888886040518863ffffffff1660e01b8152600401610e8f97969594939291906135fa565b602060405180830381600087803b158015610ea957600080fd5b505af1158015610ebd573d6000803e3d6000fd5b505050506040513d601f19601f82011682018060405250810190610ee19190612b57565b5050505050505050565b6000600a60009054906101000a900473ffffffffffffffffffffffffffffffffffffffff16905090565b3373ffffffffffffffffffffffffffffffffffffffff16610f388260ff16610bbd565b73ffffffffffffffffffffffffffffffffffffffff1614610f8e576040517f08c379a0000000000000000000000000000000000000000000000000000000008152600401610f85906135a4565b60405180910390fd5b610f9a8160ff16611ea0565b600d60009054906101000a900473ffffffffffffffffffffffffffffffffffffffff1673ffffffffffffffffffffffffffffffffffffffff1663bc2fe07b33836040518363ffffffff1660e01b8152600401610ff79291906132c3565b602060405180830381600087803b15801561101157600080fd5b505af1158015611025573d6000803e3d6000fd5b505050506040513d601f19601f820116820180604052508101906110499190612b57565b5050565b60606001805461105c906138ed565b80601f0160208091040260200160405190810160405280929190818152602001828054611088906138ed565b80156110d55780601f106110aa576101008083540402835291602001916110d5565b820191906000526020600020905b8154815290600101906020018083116110b857829003601f168201915b5050505050905090565b6000600d60009054906101000a900473ffffffffffffffffffffffffffffffffffffffff1673ffffffffffffffffffffffffffffffffffffffff166309004eb1836040518263ffffffff1660e01b815260040161113c91906135df565b60006040518083038186803b15801561115457600080fd5b505afa158015611168573d6000803e3d6000fd5b505050506040513d6000823e3d601f19601f820116820180604052508101906111919190612c38565b505050509150503373ffffffffffffffffffffffffffffffffffffffff168173ffffffffffffffffffffffffffffffffffffffff1614611206576040517f08c379a00000000000000000000000000000000000000000000000000000000081526004016111fd906135a4565b60405180910390fd5b33600c60008460ff16815260200190815260200160002060006101000a81548173ffffffffffffffffffffffffffffffffffffffff021916908373ffffffffffffffffffffffffffffffffffffffff1602179055505050565b611267611811565b73ffffffffffffffffffffffffffffffffffffffff168273ffffffffffffffffffffffffffffffffffffffff1614156112d5576040517f08c379a00000000000000000000000000000000000000000000000000000000081526004016112cc90613404565b60405180910390fd5b80600560006112e2611811565b73ffffffffffffffffffffffffffffffffffffffff1673ffffffffffffffffffffffffffffffffffffffff16815260200190815260200160002060008473ffffffffffffffffffffffffffffffffffffffff1673ffffffffffffffffffffffffffffffffffffffff16815260200190815260200160002060006101000a81548160ff0219169083151502179055508173ffffffffffffffffffffffffffffffffffffffff1661138f611811565b73ffffffffffffffffffffffffffffffffffffffff167f17307eab39ab6107e8899845ad3d59bd9653f200f220920489ca2b5937696c31836040516113d491906132ec565b60405180910390a35050565b6113f16113eb611811565b836118d2565b611430576040517f08c379a000000000000000000000000000000000000000000000000000000000815260040161142790613544565b60405180910390fd5b61143c84848484611fb1565b50505050565b6060600e61144f8361200d565b604051602001611460929190613238565b6040516020818303038152906040529050919050565b600e8054611483906138ed565b80601f01602080910402602001604051908101604052809291908181526020018280546114af906138ed565b80156114fc5780601f106114d1576101008083540402835291602001916114fc565b820191906000526020600020905b8154815290600101906020018083116114df57829003601f168201915b505050505081565b600c6020528060005260406000206000915054906101000a900473ffffffffffffffffffffffffffffffffffffffff1681565b6000600560008473ffffffffffffffffffffffffffffffffffffffff1673ffffffffffffffffffffffffffffffffffffffff16815260200190815260200160002060008373ffffffffffffffffffffffffffffffffffffffff1673ffffffffffffffffffffffffffffffffffffffff16815260200190815260200160002060009054906101000a900460ff16905092915050565b6115d3611811565b73ffffffffffffffffffffffffffffffffffffffff166115f1610eeb565b73ffffffffffffffffffffffffffffffffffffffff1614611647576040517f08c379a000000000000000000000000000000000000000000000000000000000815260040161163e906134e4565b60405180910390fd5b600073ffffffffffffffffffffffffffffffffffffffff168173ffffffffffffffffffffffffffffffffffffffff1614156116b7576040517f08c379a00000000000000000000000000000000000000000000000000000000081526004016116ae906133a4565b60405180910390fd5b6116c081611dda565b50565b60007f80ac58cd000000000000000000000000000000000000000000000000000000007bffffffffffffffffffffffffffffffffffffffffffffffffffffffff1916827bffffffffffffffffffffffffffffffffffffffffffffffffffffffff1916148061178e57507f5b5e139f000000000000000000000000000000000000000000000000000000007bffffffffffffffffffffffffffffffffffffffffffffffffffffffff1916827bffffffffffffffffffffffffffffffffffffffffffffffffffffffff1916145b8061179e575061179d8261216e565b5b9050919050565b60008073ffffffffffffffffffffffffffffffffffffffff166002600084815260200190815260200160002060009054906101000a900473ffffffffffffffffffffffffffffffffffffffff1673ffffffffffffffffffffffffffffffffffffffff1614159050919050565b600033905090565b816004600083815260200190815260200160002060006101000a81548173ffffffffffffffffffffffffffffffffffffffff021916908373ffffffffffffffffffffffffffffffffffffffff160217905550808273ffffffffffffffffffffffffffffffffffffffff1661188c83610bbd565b73ffffffffffffffffffffffffffffffffffffffff167f8c5be1e5ebec7d5bd14f71427d1e84f3dd0314c0f7b2291e5b200ac8c7c3b92560405160405180910390a45050565b60006118dd826117a5565b61191c576040517f08c379a000000000000000000000000000000000000000000000000000000000815260040161191390613424565b60405180910390fd5b600061192783610bbd565b90508073ffffffffffffffffffffffffffffffffffffffff168473ffffffffffffffffffffffffffffffffffffffff16148061199657508373ffffffffffffffffffffffffffffffffffffffff1661197e84610625565b73ffffffffffffffffffffffffffffffffffffffff16145b806119a757506119a68185611537565b5b91505092915050565b8273ffffffffffffffffffffffffffffffffffffffff166119d082610bbd565b73ffffffffffffffffffffffffffffffffffffffff1614611a26576040517f08c379a0000000000000000000000000000000000000000000000000000000008152600401611a1d90613504565b60405180910390fd5b600073ffffffffffffffffffffffffffffffffffffffff168273ffffffffffffffffffffffffffffffffffffffff161415611a96576040517f08c379a0000000000000000000000000000000000000000000000000000000008152600401611a8d906133e4565b60405180910390fd5b611aa18383836121d8565b611aac600082611819565b6001600360008573ffffffffffffffffffffffffffffffffffffffff1673ffffffffffffffffffffffffffffffffffffffff1681526020019081526020016000206000828254611afc91906137c0565b925050819055506001600360008473ffffffffffffffffffffffffffffffffffffffff1673ffffffffffffffffffffffffffffffffffffffff1681526020019081526020016000206000828254611b539190613739565b92505081905550816002600083815260200190815260200160002060006101000a81548173ffffffffffffffffffffffffffffffffffffffff021916908373ffffffffffffffffffffffffffffffffffffffff160217905550808273ffffffffffffffffffffffffffffffffffffffff168473ffffffffffffffffffffffffffffffffffffffff167fddf252ad1be2c89b69c2b068fc378daa952ba7f163c4a11628f55a4df523b3ef60405160405180910390a4505050565b600073ffffffffffffffffffffffffffffffffffffffff168273ffffffffffffffffffffffffffffffffffffffff161415611c7c576040517f08c379a0000000000000000000000000000000000000000000000000000000008152600401611c73906134a4565b60405180910390fd5b611c85816117a5565b15611cc5576040517f08c379a0000000000000000000000000000000000000000000000000000000008152600401611cbc906133c4565b60405180910390fd5b611cd1600083836121d8565b6001600360008473ffffffffffffffffffffffffffffffffffffffff1673ffffffffffffffffffffffffffffffffffffffff1681526020019081526020016000206000828254611d219190613739565b92505081905550816002600083815260200190815260200160002060006101000a81548173ffffffffffffffffffffffffffffffffffffffff021916908373ffffffffffffffffffffffffffffffffffffffff160217905550808273ffffffffffffffffffffffffffffffffffffffff16600073ffffffffffffffffffffffffffffffffffffffff167fddf252ad1be2c89b69c2b068fc378daa952ba7f163c4a11628f55a4df523b3ef60405160405180910390a45050565b6000600a60009054906101000a900473ffffffffffffffffffffffffffffffffffffffff16905081600a60006101000a81548173ffffffffffffffffffffffffffffffffffffffff021916908373ffffffffffffffffffffffffffffffffffffffff1602179055508173ffffffffffffffffffffffffffffffffffffffff168173ffffffffffffffffffffffffffffffffffffffff167f8be0079c531659141344cd1fd0a4f28419497f9722a3daafe3b4186f6b6457e060405160405180910390a35050565b6000611eab82610bbd565b9050611eb9816000846121d8565b611ec4600083611819565b6001600360008373ffffffffffffffffffffffffffffffffffffffff1673ffffffffffffffffffffffffffffffffffffffff1681526020019081526020016000206000828254611f1491906137c0565b925050819055506002600083815260200190815260200160002060006101000a81549073ffffffffffffffffffffffffffffffffffffffff021916905581600073ffffffffffffffffffffffffffffffffffffffff168273ffffffffffffffffffffffffffffffffffffffff167fddf252ad1be2c89b69c2b068fc378daa952ba7f163c4a11628f55a4df523b3ef60405160405180910390a45050565b611fbc8484846119b0565b611fc8848484846122ec565b612007576040517f08c379a0000000000000000000000000000000000000000000000000000000008152600401611ffe90613384565b60405180910390fd5b50505050565b60606000821415612055576040518060400160405280600181526020017f30000000000000000000000000000000000000000000000000000000000000008152509050612169565b600082905060005b6000821461208757808061207090613950565b915050600a82612080919061378f565b915061205d565b60008167ffffffffffffffff8111156120a3576120a2613ab5565b5b6040519080825280601f01601f1916602001820160405280156120d55781602001600182028036833780820191505090505b5090505b60008514612162576001826120ee91906137c0565b9150600a856120fd9190613999565b60306121099190613739565b60f81b81838151811061211f5761211e613a86565b5b60200101907effffffffffffffffffffffffffffffffffffffffffffffffffffffffffffff1916908160001a905350600a8561215b919061378f565b94506120d9565b8093505050505b919050565b60007f01ffc9a7000000000000000000000000000000000000000000000000000000007bffffffffffffffffffffffffffffffffffffffffffffffffffffffff1916827bffffffffffffffffffffffffffffffffffffffffffffffffffffffff1916149050919050565b6121e3838383612483565b600073ffffffffffffffffffffffffffffffffffffffff168373ffffffffffffffffffffffffffffffffffffffff1614156122265761222181612488565b612265565b8173ffffffffffffffffffffffffffffffffffffffff168373ffffffffffffffffffffffffffffffffffffffff16146122645761226383826124d1565b5b5b600073ffffffffffffffffffffffffffffffffffffffff168273ffffffffffffffffffffffffffffffffffffffff1614156122a8576122a38161263e565b6122e7565b8273ffffffffffffffffffffffffffffffffffffffff168273ffffffffffffffffffffffffffffffffffffffff16146122e6576122e5828261270f565b5b5b505050565b600061230d8473ffffffffffffffffffffffffffffffffffffffff1661278e565b15612476578373ffffffffffffffffffffffffffffffffffffffff1663150b7a02612336611811565b8786866040518563ffffffff1660e01b81526004016123589493929190613277565b602060405180830381600087803b15801561237257600080fd5b505af19250505080156123a357506040513d601f19601f820116820180604052508101906123a09190612bb1565b60015b612426573d80600081146123d3576040519150601f19603f3d011682016040523d82523d6000602084013e6123d8565b606091505b5060008151141561241e576040517f08c379a000000000000000000000000000000000000000000000000000000000815260040161241590613384565b60405180910390fd5b805181602001fd5b63150b7a0260e01b7bffffffffffffffffffffffffffffffffffffffffffffffffffffffff1916817bffffffffffffffffffffffffffffffffffffffffffffffffffffffff19161491505061247b565b600190505b949350505050565b505050565b6008805490506009600083815260200190815260200160002081905550600881908060018154018082558091505060019003906000526020600020016000909190919091505550565b600060016124de84610c6f565b6124e891906137c0565b90506000600760008481526020019081526020016000205490508181146125cd576000600660008673ffffffffffffffffffffffffffffffffffffffff1673ffffffffffffffffffffffffffffffffffffffff168152602001908152602001600020600084815260200190815260200160002054905080600660008773ffffffffffffffffffffffffffffffffffffffff1673ffffffffffffffffffffffffffffffffffffffff168152602001908152602001600020600084815260200190815260200160002081905550816007600083815260200190815260200160002081905550505b6007600084815260200190815260200160002060009055600660008573ffffffffffffffffffffffffffffffffffffffff1673ffffffffffffffffffffffffffffffffffffffff16815260200190815260200160002060008381526020019081526020016000206000905550505050565b6000600160088054905061265291906137c0565b905060006009600084815260200190815260200160002054905060006008838154811061268257612681613a86565b5b9060005260206000200154905080600883815481106126a4576126a3613a86565b5b9060005260206000200181905550816009600083815260200190815260200160002081905550600960008581526020019081526020016000206000905560088054806126f3576126f2613a57565b5b6001900381819060005260206000200160009055905550505050565b600061271a83610c6f565b905081600660008573ffffffffffffffffffffffffffffffffffffffff1673ffffffffffffffffffffffffffffffffffffffff168152602001908152602001600020600083815260200190815260200160002081905550806007600084815260200190815260200160002081905550505050565b600080823b905060008111915050919050565b60006127b46127af8461367f565b61365a565b9050828152602081018484840111156127d0576127cf613af3565b5b6127db8482856138ab565b509392505050565b60006127f66127f1846136b0565b61365a565b90508281526020810184848401111561281257612811613af3565b5b61281d8482856138ba565b509392505050565b60008135905061283481614035565b92915050565b60008151905061284981614035565b92915050565b60008135905061285e8161404c565b92915050565b6000815190506128738161404c565b92915050565b60008135905061288881614063565b92915050565b60008151905061289d81614063565b92915050565b600082601f8301126128b8576128b7613ae9565b5b81356128c88482602086016127a1565b91505092915050565b60008083601f8401126128e7576128e6613ae9565b5b8235905067ffffffffffffffff81111561290457612903613ae4565b5b6020830191508360018202830111156129205761291f613aee565b5b9250929050565b600082601f83011261293c5761293b613ae9565b5b815161294c8482602086016127e3565b91505092915050565b6000813590506129648161407a565b92915050565b60008135905061297981614091565b92915050565b60008151905061298e81614091565b92915050565b6000602082840312156129aa576129a9613afd565b5b60006129b884828501612825565b91505092915050565b600080604083850312156129d8576129d7613afd565b5b60006129e685828601612825565b92505060206129f785828601612825565b9150509250929050565b600080600060608486031215612a1a57612a19613afd565b5b6000612a2886828701612825565b9350506020612a3986828701612825565b9250506040612a4a86828701612955565b9150509250925092565b60008060008060808587031215612a6e57612a6d613afd565b5b6000612a7c87828801612825565b9450506020612a8d87828801612825565b9350506040612a9e87828801612955565b925050606085013567ffffffffffffffff811115612abf57612abe613af8565b5b612acb878288016128a3565b91505092959194509250565b60008060408385031215612aee57612aed613afd565b5b6000612afc85828601612825565b9250506020612b0d8582860161284f565b9150509250929050565b60008060408385031215612b2e57612b2d613afd565b5b6000612b3c85828601612825565b9250506020612b4d85828601612955565b9150509250929050565b600060208284031215612b6d57612b6c613afd565b5b6000612b7b84828501612864565b91505092915050565b600060208284031215612b9a57612b99613afd565b5b6000612ba884828501612879565b91505092915050565b600060208284031215612bc757612bc6613afd565b5b6000612bd58482850161288e565b91505092915050565b600060208284031215612bf457612bf3613afd565b5b6000612c0284828501612955565b91505092915050565b600060208284031215612c2157612c20613afd565b5b6000612c2f8482850161296a565b91505092915050565b60008060008060008060c08789031215612c5557612c54613afd565b5b6000612c6389828a0161297f565b9650506020612c7489828a0161283a565b955050604087015167ffffffffffffffff811115612c9557612c94613af8565b5b612ca189828a01612927565b945050606087015167ffffffffffffffff811115612cc257612cc1613af8565b5b612cce89828a01612927565b935050608087015167ffffffffffffffff811115612cef57612cee613af8565b5b612cfb89828a01612927565b92505060a0612d0c89828a01612864565b9150509295509295509295565b60008060008060008060006080888a031215612d3857612d37613afd565b5b6000612d468a828b0161296a565b975050602088013567ffffffffffffffff811115612d6757612d66613af8565b5b612d738a828b016128d1565b9650965050604088013567ffffffffffffffff811115612d9657612d95613af8565b5b612da28a828b016128d1565b9450945050606088013567ffffffffffffffff811115612dc557612dc4613af8565b5b612dd18a828b016128d1565b925092505092959891949750929550565b612deb816137f4565b82525050565b612dfa81613806565b82525050565b6000612e0b826136f6565b612e15818561370c565b9350612e258185602086016138ba565b612e2e81613b02565b840191505092915050565b612e4281613875565b82525050565b6000612e54838561371d565b9350612e618385846138ab565b612e6a83613b02565b840190509392505050565b6000612e8082613701565b612e8a818561371d565b9350612e9a8185602086016138ba565b612ea381613b02565b840191505092915050565b6000612eb982613701565b612ec3818561372e565b9350612ed38185602086016138ba565b80840191505092915050565b60008154612eec816138ed565b612ef6818661372e565b94506001821660008114612f115760018114612f2257612f55565b60ff19831686528186019350612f55565b612f2b856136e1565b60005b83811015612f4d57815481890152600182019150602081019050612f2e565b838801955050505b50505092915050565b6000612f6b600f8361371d565b9150612f7682613b13565b602082019050919050565b6000612f8e602b8361371d565b9150612f9982613b3c565b604082019050919050565b6000612fb160328361371d565b9150612fbc82613b8b565b604082019050919050565b6000612fd460268361371d565b9150612fdf82613bda565b604082019050919050565b6000612ff7601c8361371d565b915061300282613c29565b602082019050919050565b600061301a60248361371d565b915061302582613c52565b604082019050919050565b600061303d60198361371d565b915061304882613ca1565b602082019050919050565b6000613060602c8361371d565b915061306b82613cca565b604082019050919050565b600061308360388361371d565b915061308e82613d19565b604082019050919050565b60006130a6602a8361371d565b91506130b182613d68565b604082019050919050565b60006130c960298361371d565b91506130d482613db7565b604082019050919050565b60006130ec60208361371d565b91506130f782613e06565b602082019050919050565b600061310f602c8361371d565b915061311a82613e2f565b604082019050919050565b600061313260208361371d565b915061313d82613e7e565b602082019050919050565b600061315560298361371d565b915061316082613ea7565b604082019050919050565b600061317860218361371d565b915061318382613ef6565b604082019050919050565b600061319b60318361371d565b91506131a682613f45565b604082019050919050565b60006131be600b8361371d565b91506131c982613f94565b602082019050919050565b60006131e1602c8361371d565b91506131ec82613fbd565b604082019050919050565b600061320460098361371d565b915061320f8261400c565b602082019050919050565b6132238161385e565b82525050565b61323281613868565b82525050565b60006132448285612edf565b91506132508284612eae565b91508190509392505050565b60006020820190506132716000830184612de2565b92915050565b600060808201905061328c6000830187612de2565b6132996020830186612de2565b6132a6604083018561321a565b81810360608301526132b88184612e00565b905095945050505050565b60006040820190506132d86000830185612de2565b6132e56020830184613229565b9392505050565b60006020820190506133016000830184612df1565b92915050565b600060208201905061331c6000830184612e39565b92915050565b6000602082019050818103600083015261333c8184612e75565b905092915050565b6000602082019050818103600083015261335d81612f5e565b9050919050565b6000602082019050818103600083015261337d81612f81565b9050919050565b6000602082019050818103600083015261339d81612fa4565b9050919050565b600060208201905081810360008301526133bd81612fc7565b9050919050565b600060208201905081810360008301526133dd81612fea565b9050919050565b600060208201905081810360008301526133fd8161300d565b9050919050565b6000602082019050818103600083015261341d81613030565b9050919050565b6000602082019050818103600083015261343d81613053565b9050919050565b6000602082019050818103600083015261345d81613076565b9050919050565b6000602082019050818103600083015261347d81613099565b9050919050565b6000602082019050818103600083015261349d816130bc565b9050919050565b600060208201905081810360008301526134bd816130df565b9050919050565b600060208201905081810360008301526134dd81613102565b9050919050565b600060208201905081810360008301526134fd81613125565b9050919050565b6000602082019050818103600083015261351d81613148565b9050919050565b6000602082019050818103600083015261353d8161316b565b9050919050565b6000602082019050818103600083015261355d8161318e565b9050919050565b6000602082019050818103600083015261357d816131b1565b9050919050565b6000602082019050818103600083015261359d816131d4565b9050919050565b600060208201905081810360008301526135bd816131f7565b9050919050565b60006020820190506135d9600083018461321a565b92915050565b60006020820190506135f46000830184613229565b92915050565b600060808201905061360f600083018a613229565b818103602083015261362281888a612e48565b90508181036040830152613637818688612e48565b9050818103606083015261364c818486612e48565b905098975050505050505050565b6000613664613675565b9050613670828261391f565b919050565b6000604051905090565b600067ffffffffffffffff82111561369a57613699613ab5565b5b6136a382613b02565b9050602081019050919050565b600067ffffffffffffffff8211156136cb576136ca613ab5565b5b6136d482613b02565b9050602081019050919050565b60008190508160005260206000209050919050565b600081519050919050565b600081519050919050565b600082825260208201905092915050565b600082825260208201905092915050565b600081905092915050565b60006137448261385e565b915061374f8361385e565b9250827fffffffffffffffffffffffffffffffffffffffffffffffffffffffffffffffff03821115613784576137836139ca565b5b828201905092915050565b600061379a8261385e565b91506137a58361385e565b9250826137b5576137b46139f9565b5b828204905092915050565b60006137cb8261385e565b91506137d68361385e565b9250828210156137e9576137e86139ca565b5b828203905092915050565b60006137ff8261383e565b9050919050565b60008115159050919050565b60007fffffffff0000000000000000000000000000000000000000000000000000000082169050919050565b600073ffffffffffffffffffffffffffffffffffffffff82169050919050565b6000819050919050565b600060ff82169050919050565b600061388082613887565b9050919050565b600061389282613899565b9050919050565b60006138a48261383e565b9050919050565b82818337600083830152505050565b60005b838110156138d85780820151818401526020810190506138bd565b838111156138e7576000848401525b50505050565b6000600282049050600182168061390557607f821691505b6020821081141561391957613918613a28565b5b50919050565b61392882613b02565b810181811067ffffffffffffffff8211171561394757613946613ab5565b5b80604052505050565b600061395b8261385e565b91507fffffffffffffffffffffffffffffffffffffffffffffffffffffffffffffffff82141561398e5761398d6139ca565b5b600182019050919050565b60006139a48261385e565b91506139af8361385e565b9250826139bf576139be6139f9565b5b828206905092915050565b7f4e487b7100000000000000000000000000000000000000000000000000000000600052601160045260246000fd5b7f4e487b7100000000000000000000000000000000000000000000000000000000600052601260045260246000fd5b7f4e487b7100000000000000000000000000000000000000000000000000000000600052602260045260246000fd5b7f4e487b7100000000000000000000000000000000000000000000000000000000600052603160045260246000fd5b7f4e487b7100000000000000000000000000000000000000000000000000000000600052603260045260246000fd5b7f4e487b7100000000000000000000000000000000000000000000000000000000600052604160045260246000fd5b600080fd5b600080fd5b600080fd5b600080fd5b600080fd5b600080fd5b6000601f19601f8301169050919050565b7f6e6f74207472616e736665727265640000000000000000000000000000000000600082015250565b7f455243373231456e756d657261626c653a206f776e657220696e646578206f7560008201527f74206f6620626f756e6473000000000000000000000000000000000000000000602082015250565b7f4552433732313a207472616e7366657220746f206e6f6e20455243373231526560008201527f63656976657220696d706c656d656e7465720000000000000000000000000000602082015250565b7f4f776e61626c653a206e6577206f776e657220697320746865207a65726f206160008201527f6464726573730000000000000000000000000000000000000000000000000000602082015250565b7f4552433732313a20746f6b656e20616c7265616479206d696e74656400000000600082015250565b7f4552433732313a207472616e7366657220746f20746865207a65726f2061646460008201527f7265737300000000000000000000000000000000000000000000000000000000602082015250565b7f4552433732313a20617070726f766520746f2063616c6c657200000000000000600082015250565b7f4552433732313a206f70657261746f7220717565727920666f72206e6f6e657860008201527f697374656e7420746f6b656e0000000000000000000000000000000000000000602082015250565b7f4552433732313a20617070726f76652063616c6c6572206973206e6f74206f7760008201527f6e6572206e6f7220617070726f76656420666f7220616c6c0000000000000000602082015250565b7f4552433732313a2062616c616e636520717565727920666f7220746865207a6560008201527f726f206164647265737300000000000000000000000000000000000000000000602082015250565b7f4552433732313a206f776e657220717565727920666f72206e6f6e657869737460008201527f656e7420746f6b656e0000000000000000000000000000000000000000000000602082015250565b7f4552433732313a206d696e7420746f20746865207a65726f2061646472657373600082015250565b7f4552433732313a20617070726f76656420717565727920666f72206e6f6e657860008201527f697374656e7420746f6b656e0000000000000000000000000000000000000000602082015250565b7f4f776e61626c653a2063616c6c6572206973206e6f7420746865206f776e6572600082015250565b7f4552433732313a207472616e73666572206f6620746f6b656e2074686174206960008201527f73206e6f74206f776e0000000000000000000000000000000000000000000000602082015250565b7f4552433732313a20617070726f76616c20746f2063757272656e74206f776e6560008201527f7200000000000000000000000000000000000000000000000000000000000000602082015250565b7f4552433732313a207472616e736665722063616c6c6572206973206e6f74206f60008201527f776e6572206e6f7220617070726f766564000000000000000000000000000000602082015250565b7f6e6f7420636c61696d6564000000000000000000000000000000000000000000600082015250565b7f455243373231456e756d657261626c653a20676c6f62616c20696e646578206f60008201527f7574206f6620626f756e64730000000000000000000000000000000000000000602082015250565b7f6e6f74206f776e65720000000000000000000000000000000000000000000000600082015250565b61403e816137f4565b811461404957600080fd5b50565b61405581613806565b811461406057600080fd5b50565b61406c81613812565b811461407757600080fd5b50565b6140838161385e565b811461408e57600080fd5b50565b61409a81613868565b81146140a557600080fd5b5056fea2646970667358221220b99a2a5c60ba80a581f0fa0b8defd0824e213d2567a8a0573d9e923f9c51dc0264736f6c63430008070033",
  "linkReferences": {},
  "deployedLinkReferences": {}
}