{
  "contractName": "WeiCards",
  "abi": [
    {
      "constant": true,
      "inputs": [
        {
          "name": "cardId",
          "type": "uint8"
        }
      ],
      "name": "getCard",
      "outputs": [
        {
          "name": "id",
          "type": "uint8"
        },
        {
          "name": "owner",
          "type": "address"
        },
        {
          "name": "title",
          "type": "string"
        },
        {
          "name": "url",
          "type": "string"
        },
        {
          "name": "image",
          "type": "string"
        },
        {
          "name": "nsfw",
          "type": "bool"
        }
      ],
      "payable": false,
      "stateMutability": "view",
      "type": "function"
    },
    {
      "constant": true,
      "inputs": [],
      "name": "getBalance",
      "outputs": [
        {
          "name": "amount",
          "type": "uint256"
        }
      ],
      "payable": false,
      "stateMutability": "view",
      "type": "function"
    },
    {
      "constant": false,
      "inputs": [
        {
          "name": "cardId",
          "type": "uint8"
        },
        {
          "name": "price",
          "type": "uint256"
        }
      ],
      "name": "sellCard",
      "outputs": [
        {
          "name": "success",
          "type": "bool"
        }
      ],
      "payable": false,
      "stateMutability": "nonpayable",
      "type": "function"
    },
    {
      "constant": false,
      "inputs": [],
      "name": "withdraw",
      "outputs": [
        {
          "name": "",
          "type": "bool"
        }
      ],
      "payable": false,
      "stateMutability": "nonpayable",
      "type": "function"
    },
    {
      "constant": false,
      "inputs": [
        {
          "name": "cardId",
          "type": "uint8"
        }
      ],
      "name": "cancelLeaseOffer",
      "outputs": [
        {
          "name": "success",
          "type": "bool"
        }
      ],
      "payable": false,
      "stateMutability": "nonpayable",
      "type": "function"
    },
    {
      "constant": true,
      "inputs": [
        {
          "name": "cardId",
          "type": "uint8"
        }
      ],
      "name": "getCardLeaseLength",
      "outputs": [
        {
          "name": "cardLeasesCount",
          "type": "uint256"
        }
      ],
      "payable": false,
      "stateMutability": "view",
      "type": "function"
    },
    {
      "constant": false,
      "inputs": [
        {
          "name": "cardId",
          "type": "uint8"
        },
        {
          "name": "title",
          "type": "string"
        },
        {
          "name": "url",
          "type": "string"
        },
        {
          "name": "image",
          "type": "string"
        }
      ],
      "name": "initialBuyCard",
      "outputs": [
        {
          "name": "success",
          "type": "bool"
        }
      ],
      "payable": true,
      "stateMutability": "payable",
      "type": "function"
    },
    {
      "constant": false,
      "inputs": [
        {
          "name": "cardId",
          "type": "uint8"
        },
        {
          "name": "priceLease",
          "type": "uint256"
        },
        {
          "name": "leaseDuration",
          "type": "uint256"
        }
      ],
      "name": "setLeaseCard",
      "outputs": [
        {
          "name": "success",
          "type": "bool"
        }
      ],
      "payable": false,
      "stateMutability": "nonpayable",
      "type": "function"
    },
    {
      "constant": false,
      "inputs": [
        {
          "name": "cardId",
          "type": "uint8"
        },
        {
          "name": "title",
          "type": "string"
        },
        {
          "name": "url",
          "type": "string"
        },
        {
          "name": "image",
          "type": "string"
        }
      ],
      "name": "editCard",
      "outputs": [
        {
          "name": "success",
          "type": "bool"
        }
      ],
      "payable": false,
      "stateMutability": "nonpayable",
      "type": "function"
    },
    {
      "constant": false,
      "inputs": [
        {
          "name": "cardId",
          "type": "uint8"
        },
        {
          "name": "title",
          "type": "string"
        },
        {
          "name": "url",
          "type": "string"
        },
        {
          "name": "image",
          "type": "string"
        }
      ],
      "name": "leaseCard",
      "outputs": [
        {
          "name": "success",
          "type": "bool"
        }
      ],
      "payable": true,
      "stateMutability": "payable",
      "type": "function"
    },
    {
      "constant": true,
      "inputs": [
        {
          "name": "cardId",
          "type": "uint8"
        },
        {
          "name": "leaseId",
          "type": "uint256"
        }
      ],
      "name": "getLease",
      "outputs": [
        {
          "name": "leaseIndex",
          "type": "uint256"
        },
        {
          "name": "tenant",
          "type": "address"
        },
        {
          "name": "untilBlock",
          "type": "uint256"
        },
        {
          "name": "title",
          "type": "string"
        },
        {
          "name": "url",
          "type": "string"
        },
        {
          "name": "image",
          "type": "string"
        }
      ],
      "payable": false,
      "stateMutability": "view",
      "type": "function"
    },
    {
      "constant": true,
      "inputs": [
        {
          "name": "cardId",
          "type": "uint8"
        }
      ],
      "name": "computeInitialPrice",
      "outputs": [
        {
          "name": "price",
          "type": "uint256"
        }
      ],
      "payable": false,
      "stateMutability": "view",
      "type": "function"
    },
    {
      "constant": true,
      "inputs": [],
      "name": "getCards",
      "outputs": [
        {
          "name": "",
          "type": "uint8[]"
        }
      ],
      "payable": false,
      "stateMutability": "view",
      "type": "function"
    },
    {
      "constant": true,
      "inputs": [
        {
          "name": "cardId",
          "type": "uint8"
        }
      ],
      "name": "getCardDetails",
      "outputs": [
        {
          "name": "id",
          "type": "uint8"
        },
        {
          "name": "price",
          "type": "uint256"
        },
        {
          "name": "priceLease",
          "type": "uint256"
        },
        {
          "name": "leaseDuration",
          "type": "uint256"
        },
        {
          "name": "availableBuy",
          "type": "bool"
        },
        {
          "name": "availableLease",
          "type": "bool"
        }
      ],
      "payable": false,
      "stateMutability": "view",
      "type": "function"
    },
    {
      "constant": false,
      "inputs": [
        {
          "name": "to",
          "type": "address"
        },
        {
          "name": "cardId",
          "type": "uint8"
        }
      ],
      "name": "transferCardOwnership",
      "outputs": [
        {
          "name": "success",
          "type": "bool"
        }
      ],
      "payable": false,
      "stateMutability": "nonpayable",
      "type": "function"
    },
    {
      "constant": false,
      "inputs": [
        {
          "name": "cardId",
          "type": "uint8"
        },
        {
          "name": "title",
          "type": "string"
        },
        {
          "name": "url",
          "type": "string"
        },
        {
          "name": "image",
          "type": "string"
        }
      ],
      "name": "buyCard",
      "outputs": [
        {
          "name": "success",
          "type": "bool"
        }
      ],
      "payable": true,
      "stateMutability": "payable",
      "type": "function"
    },
    {
      "constant": true,
      "inputs": [],
      "name": "getCardsDetails",
      "outputs": [
        {
          "name": "",
          "type": "uint8[]"
        }
      ],
      "payable": false,
      "stateMutability": "view",
      "type": "function"
    },
    {
      "constant": false,
      "inputs": [
        {
          "name": "cardId",
          "type": "uint8"
        },
        {
          "name": "flag",
          "type": "bool"
        }
      ],
      "name": "setNSFW",
      "outputs": [
        {
          "name": "success",
          "type": "bool"
        }
      ],
      "payable": false,
      "stateMutability": "nonpayable",
      "type": "function"
    },
    {
      "constant": false,
      "inputs": [
        {
          "name": "cardId",
          "type": "uint8"
        }
      ],
      "name": "cancelSellCard",
      "outputs": [
        {
          "name": "success",
          "type": "bool"
        }
      ],
      "payable": false,
      "stateMutability": "nonpayable",
      "type": "function"
    },
    {
      "constant": true,
      "inputs": [
        {
          "name": "cardId",
          "type": "uint8"
        }
      ],
      "name": "getLastLease",
      "outputs": [
        {
          "name": "leaseIndex",
          "type": "uint256"
        },
        {
          "name": "tenant",
          "type": "address"
        },
        {
          "name": "untilBlock",
          "type": "uint256"
        },
        {
          "name": "title",
          "type": "string"
        },
        {
          "name": "url",
          "type": "string"
        },
        {
          "name": "image",
          "type": "string"
        }
      ],
      "payable": false,
      "stateMutability": "view",
      "type": "function"
    },
    {
      "inputs": [
        {
          "name": "_contractOwner",
          "type": "address"
        }
      ],
      "payable": false,
      "stateMutability": "nonpayable",
      "type": "constructor"
    },
    {
      "anonymous": false,
      "inputs": [
        {
          "indexed": false,
          "name": "cardId",
          "type": "uint8"
        }
      ],
      "name": "Buy",
      "type": "event"
    }
  ],
  "bytecode": "0x60606040526711c37937e080000060055560646006556103e8600755735adf43dd006c6c36506e2b2dfa352e60002d22dc600960006101000a81548173ffffffffffffffffffffffffffffffffffffffff021916908373ffffffffffffffffffffffffffffffffffffffff160217905550341561007b57600080fd5b604051602080612c7383398101604052808051906020019091905050600073ffffffffffffffffffffffffffffffffffffffff168173ffffffffffffffffffffffffffffffffffffffff16141515156100d357600080fd5b80600860006101000a81548173ffffffffffffffffffffffffffffffffffffffff021916908373ffffffffffffffffffffffffffffffffffffffff16021790555050612b4f806101246000396000f300606060405260043610610112576000357c0100000000000000000000000000000000000000000000000000000000900463ffffffff16806309004eb11461011757806312065fe0146102d95780632cefc429146103025780633ccfd60b1461034957806344fd584d1461037657806379081feb146103b45780637b65d0ec146103ee5780637db33f99146104ea5780638014f2381461053a5780638df793d6146106415780638f6f32751461073d578063a7f58c24146108fe578063b0df9e5314610938578063b7b2a009146109a2578063bc2fe07b14610a0d578063c02d014014610a6a578063d5bd57a114610b66578063e6591f4e14610bd0578063ec591b2014610c19578063f0d8e96814610c57575b600080fd5b341561012257600080fd5b61013b600480803560ff16906020019091905050610e0f565b604051808760ff1660ff1681526020018673ffffffffffffffffffffffffffffffffffffffff1673ffffffffffffffffffffffffffffffffffffffff16815260200180602001806020018060200185151515158152602001848103845288818151815260200191508051906020019080838360005b838110156101cb5780820151818401526020810190506101b0565b50505050905090810190601f1680156101f85780820380516001836020036101000a031916815260200191505b50848103835287818151815260200191508051906020019080838360005b83811015610231578082015181840152602081019050610216565b50505050905090810190601f16801561025e5780820380516001836020036101000a031916815260200191505b50848103825286818151815260200191508051906020019080838360005b8381101561029757808201518184015260208101905061027c565b50505050905090810190601f1680156102c45780820380516001836020036101000a031916815260200191505b50995050505050505050505060405180910390f35b34156102e457600080fd5b6102ec61111f565b6040518082815260200191505060405180910390f35b341561030d57600080fd5b61032f600480803560ff16906020019091908035906020019091905050611165565b604051808215151515815260200191505060405180910390f35b341561035457600080fd5b61035c611264565b604051808215151515815260200191505060405180910390f35b341561038157600080fd5b61039a600480803560ff16906020019091905050611334565b604051808215151515815260200191505060405180910390f35b34156103bf57600080fd5b6103d8600480803560ff16906020019091905050611411565b6040518082815260200191505060405180910390f35b6104d0600480803560ff1690602001909190803590602001908201803590602001908080601f0160208091040260200160405190810160405280939291908181526020018383808284378201915050505050509190803590602001908201803590602001908080601f0160208091040260200160405190810160405280939291908181526020018383808284378201915050505050509190803590602001908201803590602001908080601f0160208091040260200160405190810160405280939291908181526020018383808284378201915050505050509190505061143a565b604051808215151515815260200191505060405180910390f35b34156104f557600080fd5b610520600480803560ff16906020019091908035906020019091908035906020019091905050611621565b604051808215151515815260200191505060405180910390f35b341561054557600080fd5b610627600480803560ff1690602001909190803590602001908201803590602001908080601f0160208091040260200160405190810160405280939291908181526020018383808284378201915050505050509190803590602001908201803590602001908080601f0160208091040260200160405190810160405280939291908181526020018383808284378201915050505050509190803590602001908201803590602001908080601f016020809104026020016040519081016040528093929190818152602001838380828437820191505050505050919050506117c9565b604051808215151515815260200191505060405180910390f35b610723600480803560ff1690602001909190803590602001908201803590602001908080601f0160208091040260200160405190810160405280939291908181526020018383808284378201915050505050509190803590602001908201803590602001908080601f0160208091040260200160405190810160405280939291908181526020018383808284378201915050505050509190803590602001908201803590602001908080601f01602080910402602001604051908101604052809392919081815260200183838082843782019150505050505091905050611882565b604051808215151515815260200191505060405180910390f35b341561074857600080fd5b61076a600480803560ff16906020019091908035906020019091905050611c22565b604051808781526020018673ffffffffffffffffffffffffffffffffffffffff1673ffffffffffffffffffffffffffffffffffffffff168152602001858152602001806020018060200180602001848103845287818151815260200191508051906020019080838360005b838110156107f05780820151818401526020810190506107d5565b50505050905090810190601f16801561081d5780820380516001836020036101000a031916815260200191505b50848103835286818151815260200191508051906020019080838360005b8381101561085657808201518184015260208101905061083b565b50505050905090810190601f1680156108835780820380516001836020036101000a031916815260200191505b50848103825285818151815260200191508051906020019080838360005b838110156108bc5780820151818401526020810190506108a1565b50505050905090810190601f1680156108e95780820380516001836020036101000a031916815260200191505b50995050505050505050505060405180910390f35b341561090957600080fd5b610922600480803560ff16906020019091905050611f6c565b6040518082815260200191505060405180910390f35b341561094357600080fd5b61094b611fab565b6040518080602001828103825283818151815260200191508051906020019060200280838360005b8381101561098e578082015181840152602081019050610973565b505050509050019250505060405180910390f35b34156109ad57600080fd5b6109c6600480803560ff1690602001909190505061202f565b604051808760ff1660ff1681526020018681526020018581526020018481526020018315151515815260200182151515158152602001965050505050505060405180910390f35b3415610a1857600080fd5b610a50600480803573ffffffffffffffffffffffffffffffffffffffff1690602001909190803560ff1690602001909190505061218c565b604051808215151515815260200191505060405180910390f35b610b4c600480803560ff1690602001909190803590602001908201803590602001908080601f0160208091040260200160405190810160405280939291908181526020018383808284378201915050505050509190803590602001908201803590602001908080601f0160208091040260200160405190810160405280939291908181526020018383808284378201915050505050509190803590602001908201803590602001908080601f0160208091040260200160405190810160405280939291908181526020018383808284378201915050505050509190505061226b565b604051808215151515815260200191505060405180910390f35b3415610b7157600080fd5b610b796124a2565b6040518080602001828103825283818151815260200191508051906020019060200280838360005b83811015610bbc578082015181840152602081019050610ba1565b505050509050019250505060405180910390f35b3415610bdb57600080fd5b610bff600480803560ff169060200190919080351515906020019091905050612526565b604051808215151515815260200191505060405180910390f35b3415610c2457600080fd5b610c3d600480803560ff169060200190919050506125e7565b604051808215151515815260200191505060405180910390f35b3415610c6257600080fd5b610c7b600480803560ff169060200190919050506126c4565b604051808781526020018673ffffffffffffffffffffffffffffffffffffffff1673ffffffffffffffffffffffffffffffffffffffff168152602001858152602001806020018060200180602001848103845287818151815260200191508051906020019080838360005b83811015610d01578082015181840152602081019050610ce6565b50505050905090810190601f168015610d2e5780820380516001836020036101000a031916815260200191505b50848103835286818151815260200191508051906020019080838360005b83811015610d67578082015181840152602081019050610d4c565b50505050905090810190601f168015610d945780820380516001836020036101000a031916815260200191505b50848103825285818151815260200191508051906020019080838360005b83811015610dcd578082015181840152602081019050610db2565b50505050905090810190601f168015610dfa5780820380516001836020036101000a031916815260200191505b50995050505050505050505060405180910390f35b600080610e1a6129f0565b610e226129f0565b610e2a6129f0565b60008660018160ff1610158015610e455750607f8160ff1611155b1515610e5057600080fd5b600160008960ff1660ff16815260200190815260200160002060000160009054906101000a900460ff16600160008a60ff1660ff16815260200190815260200160002060000160019054906101000a900473ffffffffffffffffffffffffffffffffffffffff16600160008b60ff1660ff168152602001908152602001600020600101600160008c60ff1660ff168152602001908152602001600020600201600160008d60ff1660ff168152602001908152602001600020600301600160008e60ff1660ff16815260200190815260200160002060040160009054906101000a900460ff16838054600181600116156101000203166002900480601f016020809104026020016040519081016040528092919081815260200182805460018160011615610100020316600290048015610fca5780601f10610f9f57610100808354040283529160200191610fca565b820191906000526020600020905b815481529060010190602001808311610fad57829003601f168201915b50505050509350828054600181600116156101000203166002900480601f0160208091040260200160405190810160405280929190818152602001828054600181600116156101000203166002900480156110665780601f1061103b57610100808354040283529160200191611066565b820191906000526020600020905b81548152906001019060200180831161104957829003601f168201915b50505050509250818054600181600116156101000203166002900480601f0160208091040260200160405190810160405280929190818152602001828054600181600116156101000203166002900480156111025780601f106110d757610100808354040283529160200191611102565b820191906000526020600020905b8154815290600101906020018083116110e557829003601f168201915b505050505091509650965096509650965096505091939550919395565b60008060003373ffffffffffffffffffffffffffffffffffffffff1673ffffffffffffffffffffffffffffffffffffffff16815260200190815260200160002054905090565b60008260018160ff16101580156111805750607f8160ff1611155b151561118b57600080fd5b83600160008260ff1660ff16815260200190815260200160002060000160019054906101000a900473ffffffffffffffffffffffffffffffffffffffff1673ffffffffffffffffffffffffffffffffffffffff163373ffffffffffffffffffffffffffffffffffffffff1614151561120257600080fd5b83600360008760ff1660ff168152602001908152602001600020600101819055506001600360008760ff1660ff16815260200190815260200160002060040160006101000a81548160ff02191690831515021790555060019250505092915050565b6000806000803373ffffffffffffffffffffffffffffffffffffffff1673ffffffffffffffffffffffffffffffffffffffff16815260200190815260200160002054905060008060003373ffffffffffffffffffffffffffffffffffffffff1673ffffffffffffffffffffffffffffffffffffffff168152602001908152602001600020819055503373ffffffffffffffffffffffffffffffffffffffff166108fc829081150290604051600060405180830381858888f19350505050151561132c57600080fd5b600191505090565b60008160018160ff161015801561134f5750607f8160ff1611155b151561135a57600080fd5b82600160008260ff1660ff16815260200190815260200160002060000160019054906101000a900473ffffffffffffffffffffffffffffffffffffffff1673ffffffffffffffffffffffffffffffffffffffff163373ffffffffffffffffffffffffffffffffffffffff161415156113d157600080fd5b6000600360008660ff1660ff16815260200190815260200160002060040160016101000a81548160ff021916908315150217905550600192505050919050565b6000600360008360ff1660ff168152602001908152602001600020600501805490509050919050565b6000808560018160ff16101580156114565750607f8160ff1611155b151561146157600080fd5b61146a87611f6c565b915081341015151561147b57600080fd5b600073ffffffffffffffffffffffffffffffffffffffff16600160008960ff1660ff16815260200190815260200160002060000160019054906101000a900473ffffffffffffffffffffffffffffffffffffffff1673ffffffffffffffffffffffffffffffffffffffff161415156114f257600080fd5b6114ff873388888861270e565b506000600160008960ff1660ff16815260200190815260200160002060040160006101000a81548160ff021916908315150217905550611586600860009054906101000a900473ffffffffffffffffffffffffffffffffffffffff16600960009054906101000a900473ffffffffffffffffffffffffffffffffffffffff1660075461280b565b5061159187836128c6565b50600280548060010182816115a69190612a04565b916000526020600020906020918282040191900689909190916101000a81548160ff021916908360ff160217905550507f0a7098684240e58dd61f58b2f166afe1702fbda7cb91b4132f76852b0da7fd2087604051808260ff1660ff16815260200191505060405180910390a1600192505050949350505050565b60008060008560018160ff161015801561163f5750607f8160ff1611155b151561164a57600080fd5b86600160008260ff1660ff16815260200190815260200160002060000160019054906101000a900473ffffffffffffffffffffffffffffffffffffffff1673ffffffffffffffffffffffffffffffffffffffff163373ffffffffffffffffffffffffffffffffffffffff161415156116c157600080fd5b600360008960ff1660ff16815260200190815260200160002060040160009054906101000a900460ff161515156116f757600080fd5b61170088611411565b9350600360008960ff1660ff1681526020019081526020016000206006016000858152602001908152602001600020600301549250438310151561174357600080fd5b86600360008a60ff1660ff168152602001908152602001600020600201819055506001600360008a60ff1660ff16815260200190815260200160002060040160016101000a81548160ff02191690831515021790555085600360008a60ff1660ff1681526020019081526020016000206003018190555060019450505050509392505050565b60008460018160ff16101580156117e45750607f8160ff1611155b15156117ef57600080fd5b85600160008260ff1660ff16815260200190815260200160002060000160019054906101000a900473ffffffffffffffffffffffffffffffffffffffff1673ffffffffffffffffffffffffffffffffffffffff163373ffffffffffffffffffffffffffffffffffffffff1614151561186657600080fd5b611873873388888861270e565b50600192505050949350505050565b60008060008060008060008a60018160ff16101580156118a65750607f8160ff1611155b15156118b157600080fd5b600360008d60ff1660ff16815260200190815260200160002060040160019054906101000a900460ff1615156118e657600080fd5b600360008d60ff1660ff168152602001908152602001600020600201549650600360008d60ff1660ff168152602001908152602001600020600301549550858702945084341015151561193857600080fd5b60016119438d611411565b0193508543019250600160008d60ff1660ff16815260200190815260200160002060000160019054906101000a900473ffffffffffffffffffffffffffffffffffffffff1691506119b982600860009054906101000a900473ffffffffffffffffffffffffffffffffffffffff1660065461280b565b5083600360008e60ff1660ff16815260200190815260200160002060060160008681526020019081526020016000206000018190555033600360008e60ff1660ff168152602001908152602001600020600601600086815260200190815260200160002060010160006101000a81548173ffffffffffffffffffffffffffffffffffffffff021916908373ffffffffffffffffffffffffffffffffffffffff16021790555084600360008e60ff1660ff16815260200190815260200160002060060160008681526020019081526020016000206002018190555082600360008e60ff1660ff1681526020019081526020016000206006016000868152602001908152602001600020600301819055508a600360008e60ff1660ff16815260200190815260200160002060060160008681526020019081526020016000206004019080519060200190611b0c929190612a3e565b5089600360008e60ff1660ff16815260200190815260200160002060060160008681526020019081526020016000206005019080519060200190611b51929190612a3e565b5088600360008e60ff1660ff16815260200190815260200160002060060160008681526020019081526020016000206006019080519060200190611b96929190612a3e565b506000600360008e60ff1660ff16815260200190815260200160002060040160016101000a81548160ff021916908315150217905550600360008d60ff1660ff1681526020019081526020016000206005018054806001018281611bfa9190612abe565b9160005260206000209001600086909190915055506001975050505050505050949350505050565b6000806000611c2f6129f0565b611c376129f0565b611c3f6129f0565b600360008960ff1660ff168152602001908152602001600020600601600088815260200190815260200160002060000154600360008a60ff1660ff168152602001908152602001600020600601600089815260200190815260200160002060010160009054906101000a900473ffffffffffffffffffffffffffffffffffffffff16600360008b60ff1660ff16815260200190815260200160002060060160008a815260200190815260200160002060030154600360008c60ff1660ff16815260200190815260200160002060060160008b8152602001908152602001600020600401600360008d60ff1660ff16815260200190815260200160002060060160008c8152602001908152602001600020600501600360008e60ff1660ff16815260200190815260200160002060060160008d8152602001908152602001600020600601828054600181600116156101000203166002900480601f016020809104026020016040519081016040528092919081815260200182805460018160011615610100020316600290048015611e175780601f10611dec57610100808354040283529160200191611e17565b820191906000526020600020905b815481529060010190602001808311611dfa57829003601f168201915b50505050509250818054600181600116156101000203166002900480601f016020809104026020016040519081016040528092919081815260200182805460018160011615610100020316600290048015611eb35780601f10611e8857610100808354040283529160200191611eb3565b820191906000526020600020905b815481529060010190602001808311611e9657829003601f168201915b50505050509150808054600181600116156101000203166002900480601f016020809104026020016040519081016040528092919081815260200182805460018160011615610100020316600290048015611f4f5780601f10611f2457610100808354040283529160200191611f4f565b820191906000526020600020905b815481529060010190602001808311611f3257829003601f168201915b505050505090509550955095509550955095509295509295509295565b60008160018160ff1610158015611f875750607f8160ff1611155b1515611f9257600080fd5b8260ff16662386f26fc100000260055403915050919050565b611fb3612aea565b600280548060200260200160405190810160405280929190818152602001828054801561202557602002820191906000526020600020906000905b82829054906101000a900460ff1660ff1681526020019060010190602082600001049283019260010382029150808411611fee5790505b5050505050905090565b60008060008060008060008760018160ff16101580156120535750607f8160ff1611155b151561205e57600080fd5b6000600360008b60ff1660ff16815260200190815260200160002060000160009054906101000a900460ff1660ff1614806120bf5750600360008a60ff1660ff16815260200190815260200160002060040160009054906101000a900460ff165b156120c957600191505b600360008a60ff1660ff16815260200190815260200160002060000160009054906101000a900460ff16600360008b60ff1660ff16815260200190815260200160002060010154600360008c60ff1660ff16815260200190815260200160002060020154600360008d60ff1660ff1681526020019081526020016000206003015485600360008f60ff1660ff16815260200190815260200160002060040160019054906101000a900460ff16975097509750975097509750505091939550919395565b600081600160008260ff1660ff16815260200190815260200160002060000160019054906101000a900473ffffffffffffffffffffffffffffffffffffffff1673ffffffffffffffffffffffffffffffffffffffff163373ffffffffffffffffffffffffffffffffffffffff1614151561220557600080fd5b83600160008560ff1660ff16815260200190815260200160002060000160016101000a81548173ffffffffffffffffffffffffffffffffffffffff021916908373ffffffffffffffffffffffffffffffffffffffff160217905550600191505092915050565b60008060008660018160ff16101580156122895750607f8160ff1611155b151561229457600080fd5b600073ffffffffffffffffffffffffffffffffffffffff16600160008a60ff1660ff16815260200190815260200160002060000160019054906101000a900473ffffffffffffffffffffffffffffffffffffffff1673ffffffffffffffffffffffffffffffffffffffff161415151561230c57600080fd5b600360008960ff1660ff16815260200190815260200160002060040160009054906101000a900460ff16151561234157600080fd5b600360008960ff1660ff16815260200190815260200160002060010154925082341015151561236f57600080fd5b600160008960ff1660ff16815260200190815260200160002060000160019054906101000a900473ffffffffffffffffffffffffffffffffffffffff1691506123dd82600860009054906101000a900473ffffffffffffffffffffffffffffffffffffffff1660065461280b565b506123eb883389898961270e565b506000600160008a60ff1660ff16815260200190815260200160002060040160006101000a81548160ff0219169083151502179055506000600360008a60ff1660ff16815260200190815260200160002060040160006101000a81548160ff0219169083151502179055507f0a7098684240e58dd61f58b2f166afe1702fbda7cb91b4132f76852b0da7fd2088604051808260ff1660ff16815260200191505060405180910390a160019350505050949350505050565b6124aa612aea565b600480548060200260200160405190810160405280929190818152602001828054801561251c57602002820191906000526020600020906000905b82829054906101000a900460ff1660ff16815260200190600101906020826000010492830192600103820291508084116124e55790505b5050505050905090565b60008260018160ff16101580156125415750607f8160ff1611155b151561254c57600080fd5b600860009054906101000a900473ffffffffffffffffffffffffffffffffffffffff1673ffffffffffffffffffffffffffffffffffffffff163373ffffffffffffffffffffffffffffffffffffffff161415156125a857600080fd5b82600160008660ff1660ff16815260200190815260200160002060040160006101000a81548160ff021916908315150217905550600191505092915050565b60008160018160ff16101580156126025750607f8160ff1611155b151561260d57600080fd5b82600160008260ff1660ff16815260200190815260200160002060000160019054906101000a900473ffffffffffffffffffffffffffffffffffffffff1673ffffffffffffffffffffffffffffffffffffffff163373ffffffffffffffffffffffffffffffffffffffff1614151561268457600080fd5b6000600360008660ff1660ff16815260200190815260200160002060040160006101000a81548160ff021916908315150217905550600192505050919050565b60008060006126d16129f0565b6126d96129f0565b6126e16129f0565b60006126ec88611411565b90506126f88882611c22565b9650965096509650965096505091939550919395565b600084600160008860ff1660ff16815260200190815260200160002060000160016101000a81548173ffffffffffffffffffffffffffffffffffffffff021916908373ffffffffffffffffffffffffffffffffffffffff16021790555083600160008860ff1660ff168152602001908152602001600020600101908051906020019061279b929190612a3e565b5082600160008860ff1660ff16815260200190815260200160002060020190805190602001906127cc929190612a3e565b5081600160008860ff1660ff16815260200190815260200160002060030190805190602001906127fd929190612a3e565b506001905095945050505050565b600080600061281a34856129d6565b91508134039050806000808873ffffffffffffffffffffffffffffffffffffffff1673ffffffffffffffffffffffffffffffffffffffff16815260200190815260200160002060008282540192505081905550816000808773ffffffffffffffffffffffffffffffffffffffff1673ffffffffffffffffffffffffffffffffffffffff168152602001908152602001600020600082825401925050819055506001925050509392505050565b600082600360008560ff1660ff16815260200190815260200160002060000160006101000a81548160ff021916908360ff16021790555081600360008560ff1660ff168152602001908152602001600020600101819055506000600360008560ff1660ff16815260200190815260200160002060040160006101000a81548160ff0219169083151502179055506000600360008560ff1660ff16815260200190815260200160002060040160016101000a81548160ff0219169083151502179055506004805480600101828161299c9190612a04565b916000526020600020906020918282040191900685909190916101000a81548160ff021916908360ff160217905550506001905092915050565b60006127108284028115156129e757fe5b04905092915050565b602060405190810160405280600081525090565b815481835581811511612a3957601f016020900481601f01602090048360005260206000209182019101612a389190612afe565b5b505050565b828054600181600116156101000203166002900490600052602060002090601f016020900481019282601f10612a7f57805160ff1916838001178555612aad565b82800160010185558215612aad579182015b82811115612aac578251825591602001919060010190612a91565b5b509050612aba9190612afe565b5090565b815481835581811511612ae557818360005260206000209182019101612ae49190612afe565b5b505050565b602060405190810160405280600081525090565b612b2091905b80821115612b1c576000816000905550600101612b04565b5090565b905600a165627a7a72305820a5434dfdbe358a5a830b94e90e246b192fe0104cda0b28a6bf5ffc07a8412dee0029",
  "source": "pragma solidity ^0.4.18;\n\ncontract WeiCards {\n\n    /// Buy card event\n    event Buy(uint8 cardId);\n\n    /// Lease record, store card tenants details\n    /// and lease details\n    struct LeaseCard {\n      uint id;\n      address tenant;\n      uint price;\n      uint untilBlock;\n      string title;\n      string url;\n      string image;\n    }\n\n    /// Record card details\n    struct cardDetails {\n      uint8 id;\n      uint price;\n      uint priceLease; // price per block\n      uint leaseDuration; // in block\n      bool availableBuy;\n      bool availableLease;\n      uint[] leaseList;\n      mapping(uint => LeaseCard) leaseCardStructs;\n    }\n\n    /// Record card\n    struct Card {\n      uint8 id;\n      address owner;\n      string title;\n      string url;\n      string image;\n      bool nsfw;\n    }\n    \n    /// Users pending withdrawals\n    mapping(address => uint) pendingWithdrawals;\n\n    mapping(uint8 => Card) cardStructs; // random access by card key\n    uint8[] cardList; // list of announce keys so we can enumerate them\n\n    mapping(uint8 => cardDetails) cardDetailsStructs; // random access by card details key\n    uint8[] cardDetailsList; // list of cards details keys so we can enumerate them\n\n    /// Initial card price (1.28 Ether)\n    uint initialCardPrice = 1280000000000000000; // wei\n\n    /// Owner cut (1%) . This cut only apply on a user-to-user card transaction\n    uint ownerBuyCut = 100;\n    /// GiveETH cut (10%)\n    uint giveEthCut = 1000;\n\n    /// contractOwner can withdraw the funds\n    address contractOwner;\n    /// Giveth address\n    address giveEthAddress = 0x5ADF43DD006c6C36506e2b2DFA352E60002d22Dc;\n    \n    /// Contract constructor\n    function WeiCards(address _contractOwner) public {\n      require(_contractOwner != address(0));\n      contractOwner = _contractOwner;\n    }\n\n    modifier onlyContractOwner()\n    {\n       // Throws if called by any account other than the contract owner\n        require(msg.sender == contractOwner);\n        _;\n    }\n\n    modifier onlyCardOwner(uint8 cardId)\n    {\n       // Throws if called by any account other than the card owner\n        require(msg.sender == cardStructs[cardId].owner);\n        _;\n    }\n\n    modifier onlyValidCard(uint8 cardId)\n    {\n       // Throws if card is not valid\n        require(cardId >= 1 && cardId <= 127);\n        _;\n    }\n    \n    /// Return cardList array\n    function getCards() public view\n        returns(uint8[])\n    {\n      return cardList;\n    }\n\n    /// Return cardDetailsList array\n    function getCardsDetails() public view\n        returns(uint8[])\n    {\n      return cardDetailsList;\n    }\n\n    /// Return card details by id\n    function getCardDetails(uint8 cardId) view public\n        onlyValidCard(cardId)\n        returns (uint8 id, uint price, uint priceLease, uint leaseDuration, bool availableBuy, bool availableLease)\n    {\n        bool _buyAvailability;\n        if (cardDetailsStructs[cardId].id == 0 || cardDetailsStructs[cardId].availableBuy) {\n            _buyAvailability = true;\n        }\n\n        return(\n          cardDetailsStructs[cardId].id,\n          cardDetailsStructs[cardId].price,\n          cardDetailsStructs[cardId].priceLease,\n          cardDetailsStructs[cardId].leaseDuration,\n          _buyAvailability,\n          cardDetailsStructs[cardId].availableLease\n        );\n    }\n\n    /// Return card by id\n    function getCard(uint8 cardId) view public\n        onlyValidCard(cardId)\n        returns (uint8 id, address owner, string title, string url, string image, bool nsfw)\n    {\n        return(\n          cardStructs[cardId].id,\n          cardStructs[cardId].owner,\n          cardStructs[cardId].title,\n          cardStructs[cardId].url,\n          cardStructs[cardId].image,\n          cardStructs[cardId].nsfw\n        );\n    }\n    \n    /// This is called on the initial buy card, user to user buy is at buyCard()\n    /// Amount is sent to contractOwner balance and giveth get 10% of this amount\n    function initialBuyCard(uint8 cardId, string title, string url, string image) public\n        onlyValidCard(cardId)\n        payable\n        returns (bool success)\n    {\n        // Check sent amount\n        uint price = computeInitialPrice(cardId);\n        require(msg.value >= price);\n        // If owner is 0x0, then we are sure that\n        // this is the initial buy\n        require(cardStructs[cardId].owner == address(0));\n\n        // Fill card\n        _fillCardStruct(cardId, msg.sender, title, url, image);\n        // Set nsfw flag to false\n        cardStructs[cardId].nsfw = false;\n        // Contract credit 10% of price to GiveETH\n         _applyShare(contractOwner, giveEthAddress, giveEthCut);\n        // Initialize card details\n        _initCardDetails(cardId, price);\n        // Add the card to cardList\n        cardList.push(cardId);\n        // Fire event\n        Buy(cardId);\n        return true;\n    }\n\n    /// Perform a user to user buy transaction\n    /// Contract owner takes 1% cut on each of this transaction\n    function buyCard(uint8 cardId, string title, string url, string image) public\n        onlyValidCard(cardId)\n        payable\n        returns (bool success)\n    {\n        // Check that this is not an initial buy, i.e. that the\n        // card belongs to someone\n        require(cardStructs[cardId].owner != address(0));\n        // Check if card is on sale\n        require(cardDetailsStructs[cardId].availableBuy);\n        // Check sent amount\n        uint price = cardDetailsStructs[cardId].price;\n        require(msg.value >= price);\n        \n        address previousOwner = cardStructs[cardId].owner;\n        // Take 1% cut on buy\n        _applyShare(previousOwner, contractOwner, ownerBuyCut);\n        // Fill card\n        _fillCardStruct(cardId, msg.sender, title, url, image);\n        // Set nsfw flag to false\n        cardStructs[cardId].nsfw = false;\n        // Disable sell status\n        cardDetailsStructs[cardId].availableBuy = false;\n        // Fire event\n        Buy(cardId);\n        return true;\n    }\n\n    /// Allow card owner to edit his card informations\n    function editCard(uint8 cardId, string title, string url, string image) public\n        onlyValidCard(cardId)\n        onlyCardOwner(cardId)\n        returns (bool success)\n    {\n        // Fill card\n        _fillCardStruct(cardId, msg.sender, title, url, image);\n        // Disable sell status\n        return true;\n    }\n\n    /// Allow card owner to set his card on sale at specific price\n    function sellCard(uint8 cardId, uint price) public\n        onlyValidCard(cardId)\n        onlyCardOwner(cardId)\n        returns (bool success)\n    {\n        cardDetailsStructs[cardId].price = price;\n        cardDetailsStructs[cardId].availableBuy = true;\n        return true;\n    }\n\n    /// Allow card owner to cancel sell offer\n    function cancelSellCard(uint8 cardId) public\n        onlyValidCard(cardId)\n        onlyCardOwner(cardId)\n        returns (bool success)\n    {\n        cardDetailsStructs[cardId].availableBuy = false;\n        return true;\n    }\n\n    /// Allow card owner to set his card on lease at fixed price per block and duration\n    function setLeaseCard(uint8 cardId, uint priceLease, uint leaseDuration) public\n        onlyValidCard(cardId)\n        onlyCardOwner(cardId)\n        returns (bool success)\n    {\n        // Card cannot be on sale when setting lease\n        // cancelSellCard() first\n        require(!cardDetailsStructs[cardId].availableBuy);\n        // Card cannot be set on lease while currently leasing\n        uint _lastLeaseId = getCardLeaseLength(cardId);\n        uint _until = cardDetailsStructs[cardId].leaseCardStructs[_lastLeaseId].untilBlock;\n        require(_until < block.number);\n\n        cardDetailsStructs[cardId].priceLease = priceLease;\n        cardDetailsStructs[cardId].availableLease = true;\n        cardDetailsStructs[cardId].leaseDuration = leaseDuration;\n        return true;\n    }\n\n    /// Allow card owner to cancel lease offer\n    /// Note that this do not interrupt current lease if any\n    function cancelLeaseOffer(uint8 cardId) public\n        onlyValidCard(cardId)\n        onlyCardOwner(cardId)\n        returns (bool success)\n    {\n        cardDetailsStructs[cardId].availableLease = false;\n        return true;\n    }\n\n    /// Allow future tenant to lease a card\n    function leaseCard(uint8 cardId, string title, string url, string image) public\n        onlyValidCard(cardId)\n        payable\n        returns (bool success)\n    {\n        // Check that card is avaible to lease\n        require(cardDetailsStructs[cardId].availableLease);\n        // Get price (per block) and leaseDuration (block)\n        uint price = cardDetailsStructs[cardId].priceLease;\n        uint leaseDuration = cardDetailsStructs[cardId].leaseDuration;\n        uint totalAmount = price * leaseDuration;\n        // Check that amount sent is sufficient\n        require(msg.value >= totalAmount);\n        // Get new lease id\n        uint leaseId = getCardLeaseLength(cardId) + 1;\n        // Get the block number of lease end\n        uint untilBlock = block.number + leaseDuration;\n        // Take 1% cut on lease\n        address _cardOwner = cardStructs[cardId].owner;\n        _applyShare(_cardOwner, contractOwner, ownerBuyCut);\n        // Fill leaseCardStructs\n        cardDetailsStructs[cardId].leaseCardStructs[leaseId].id = leaseId;\n        cardDetailsStructs[cardId].leaseCardStructs[leaseId].tenant = msg.sender;\n        cardDetailsStructs[cardId].leaseCardStructs[leaseId].price = totalAmount;\n        cardDetailsStructs[cardId].leaseCardStructs[leaseId].untilBlock = untilBlock;\n        cardDetailsStructs[cardId].leaseCardStructs[leaseId].title = title;\n        cardDetailsStructs[cardId].leaseCardStructs[leaseId].url = url;\n        cardDetailsStructs[cardId].leaseCardStructs[leaseId].image = image;\n        // Leases are now unavailable for this card\n        cardDetailsStructs[cardId].availableLease = false;\n        // Add lease to leases list of correspondant cardDetails\n        cardDetailsStructs[cardId].leaseList.push(leaseId);\n        return true;\n    }\n\n    /// Get last lease from a card\n    function getLastLease(uint8 cardId) public constant\n        returns(uint leaseIndex, address tenant, uint untilBlock, string title, string url, string image)\n    {\n        uint _leaseIndex = getCardLeaseLength(cardId);\n        return getLease(cardId, _leaseIndex);\n    }\n\n    /// Get lease from card\n    function getLease(uint8 cardId, uint leaseId) public constant\n        returns(uint leaseIndex, address tenant, uint untilBlock, string title, string url, string image)\n    {\n        return(\n            cardDetailsStructs[cardId].leaseCardStructs[leaseId].id,\n            cardDetailsStructs[cardId].leaseCardStructs[leaseId].tenant,\n            cardDetailsStructs[cardId].leaseCardStructs[leaseId].untilBlock,\n            cardDetailsStructs[cardId].leaseCardStructs[leaseId].title,\n            cardDetailsStructs[cardId].leaseCardStructs[leaseId].url,\n            cardDetailsStructs[cardId].leaseCardStructs[leaseId].image\n        );\n    }\n\n    /// Get lease list from a card\n    function getCardLeaseLength(uint8 cardId) public constant\n        returns(uint cardLeasesCount)\n    {\n        return(cardDetailsStructs[cardId].leaseList.length);\n    }\n\n    /// Transfer the ownership of a card\n    function transferCardOwnership(address to, uint8 cardId) public\n      onlyCardOwner(cardId)\n      returns (bool success)\n    {\n        // Transfer card ownership\n        cardStructs[cardId].owner = to;\n        return true;\n    }\n    \n    /// Return balance from sender\n    function getBalance() public view\n      returns (uint amount)\n    {\n        return pendingWithdrawals[msg.sender];\n    }\n    \n    /// Allow address to withdraw their balance\n    function withdraw() public\n        returns (bool) \n    {\n        uint amount = pendingWithdrawals[msg.sender];\n        // Remember to zero the pending refund before\n        // sending to prevent re-entrancy attacks\n        pendingWithdrawals[msg.sender] = 0;\n        msg.sender.transfer(amount);\n        return true;\n    }\n    \n    /// Compute initial card price (in wei)\n    function computeInitialPrice(uint8 cardId) public view\n        onlyValidCard(cardId)\n        returns (uint price)\n    {\n        // 1.27 ether - 0.01 ether * cardId\n        return initialCardPrice - (10000000000000000 * uint256(cardId));\n    }\n\n    /// Allow contract owner to set NSFW flag on a card\n    function setNSFW(uint8 cardId, bool flag) public\n        onlyValidCard(cardId)\n        onlyContractOwner()\n        returns (bool success)\n    {\n        cardStructs[cardId].nsfw = flag;\n        return true;\n    }\n\n    /// Fill Card struct\n    function _fillCardStruct(uint8 _cardId, address _owner, string _title, string _url, string _image) internal\n        returns (bool success)\n    {\n        cardStructs[_cardId].owner = _owner;\n        cardStructs[_cardId].title = _title;\n        cardStructs[_cardId].url = _url;\n        cardStructs[_cardId].image = _image;\n        return true;\n    }\n\n    /// Initialize sell card for future\n    function _initCardDetails(uint8 cardId, uint price) internal\n        returns (bool success)\n    {\n        // priceLease, leaseDuration set to default value(= 0)\n        cardDetailsStructs[cardId].id = cardId;\n        cardDetailsStructs[cardId].price = price;\n        cardDetailsStructs[cardId].availableBuy = false;\n        cardDetailsStructs[cardId].availableLease = false;\n        cardDetailsList.push(cardId);\n        return true;\n    }\n\n    /// Send split amounts to respective balances\n    function _applyShare(address _seller, address _auctioneer, uint _cut) internal\n        returns (bool success)\n    {\n        // Compute share\n        uint256 auctioneerCut = _computeCut(msg.value, _cut);\n        uint256 sellerProceeds = msg.value - auctioneerCut;\n        // Credit seller balance\n        pendingWithdrawals[_seller] += sellerProceeds;\n        // Credit auctionner balance\n        pendingWithdrawals[_auctioneer] += auctioneerCut;\n        return true;\n    }\n\n    /// Compute _cut from a _price \n    function _computeCut(uint256 _price, uint256 _cut) internal pure\n        returns (uint256)\n    {\n        return _price * _cut / 10000;\n    }\n}",
  "sourcePath": "E:\\dev\\ethcards\\contracts\\WeiCards.sol",
  "compiler": {
    "name": "solc",
    "version": "0.4.18+commit.9cf6e910.Emscripten.clang"
  },
  "schemaVersion": "1.0.1",
  "updatedAt": "2017-12-20T22:21:08.316Z"
}