{
  "contractName": "WeiCards",
  "abi": [
    {
      "constant": true,
      "inputs": [
        {
          "name": "cardId",
          "type": "uint8"
        }
      ],
      "name": "getCard",
      "outputs": [
        {
          "name": "id",
          "type": "uint8"
        },
        {
          "name": "owner",
          "type": "address"
        },
        {
          "name": "title",
          "type": "string"
        },
        {
          "name": "url",
          "type": "string"
        },
        {
          "name": "image",
          "type": "string"
        },
        {
          "name": "nsfw",
          "type": "bool"
        }
      ],
      "payable": false,
      "stateMutability": "view",
      "type": "function"
    },
    {
      "constant": true,
      "inputs": [],
      "name": "getBalance",
      "outputs": [
        {
          "name": "amount",
          "type": "uint256"
        }
      ],
      "payable": false,
      "stateMutability": "view",
      "type": "function"
    },
    {
      "constant": false,
      "inputs": [
        {
          "name": "cardId",
          "type": "uint8"
        },
        {
          "name": "price",
          "type": "uint256"
        }
      ],
      "name": "sellCard",
      "outputs": [
        {
          "name": "success",
          "type": "bool"
        }
      ],
      "payable": false,
      "stateMutability": "nonpayable",
      "type": "function"
    },
    {
      "constant": false,
      "inputs": [],
      "name": "withdraw",
      "outputs": [
        {
          "name": "",
          "type": "bool"
        }
      ],
      "payable": false,
      "stateMutability": "nonpayable",
      "type": "function"
    },
    {
      "constant": false,
      "inputs": [
        {
          "name": "cardId",
          "type": "uint8"
        }
      ],
      "name": "cancelLeaseOffer",
      "outputs": [
        {
          "name": "success",
          "type": "bool"
        }
      ],
      "payable": false,
      "stateMutability": "nonpayable",
      "type": "function"
    },
    {
      "constant": true,
      "inputs": [
        {
          "name": "cardId",
          "type": "uint8"
        }
      ],
      "name": "getCardLeaseLength",
      "outputs": [
        {
          "name": "cardLeasesCount",
          "type": "uint256"
        }
      ],
      "payable": false,
      "stateMutability": "view",
      "type": "function"
    },
    {
      "constant": false,
      "inputs": [
        {
          "name": "cardId",
          "type": "uint8"
        },
        {
          "name": "title",
          "type": "string"
        },
        {
          "name": "url",
          "type": "string"
        },
        {
          "name": "image",
          "type": "string"
        }
      ],
      "name": "initialBuyCard",
      "outputs": [
        {
          "name": "success",
          "type": "bool"
        }
      ],
      "payable": true,
      "stateMutability": "payable",
      "type": "function"
    },
    {
      "constant": false,
      "inputs": [
        {
          "name": "cardId",
          "type": "uint8"
        },
        {
          "name": "priceLease",
          "type": "uint256"
        },
        {
          "name": "leaseDuration",
          "type": "uint256"
        }
      ],
      "name": "setLeaseCard",
      "outputs": [
        {
          "name": "success",
          "type": "bool"
        }
      ],
      "payable": false,
      "stateMutability": "nonpayable",
      "type": "function"
    },
    {
      "constant": false,
      "inputs": [
        {
          "name": "cardId",
          "type": "uint8"
        },
        {
          "name": "title",
          "type": "string"
        },
        {
          "name": "url",
          "type": "string"
        },
        {
          "name": "image",
          "type": "string"
        }
      ],
      "name": "editCard",
      "outputs": [
        {
          "name": "success",
          "type": "bool"
        }
      ],
      "payable": false,
      "stateMutability": "nonpayable",
      "type": "function"
    },
    {
      "constant": false,
      "inputs": [
        {
          "name": "cardId",
          "type": "uint8"
        },
        {
          "name": "title",
          "type": "string"
        },
        {
          "name": "url",
          "type": "string"
        },
        {
          "name": "image",
          "type": "string"
        }
      ],
      "name": "leaseCard",
      "outputs": [
        {
          "name": "success",
          "type": "bool"
        }
      ],
      "payable": true,
      "stateMutability": "payable",
      "type": "function"
    },
    {
      "constant": true,
      "inputs": [
        {
          "name": "cardId",
          "type": "uint8"
        },
        {
          "name": "leaseId",
          "type": "uint256"
        }
      ],
      "name": "getLease",
      "outputs": [
        {
          "name": "leaseIndex",
          "type": "uint256"
        },
        {
          "name": "tenant",
          "type": "address"
        },
        {
          "name": "untilBlock",
          "type": "uint256"
        },
        {
          "name": "title",
          "type": "string"
        },
        {
          "name": "url",
          "type": "string"
        },
        {
          "name": "image",
          "type": "string"
        }
      ],
      "payable": false,
      "stateMutability": "view",
      "type": "function"
    },
    {
      "constant": true,
      "inputs": [
        {
          "name": "cardId",
          "type": "uint8"
        }
      ],
      "name": "computeInitialPrice",
      "outputs": [
        {
          "name": "price",
          "type": "uint256"
        }
      ],
      "payable": false,
      "stateMutability": "view",
      "type": "function"
    },
    {
      "constant": true,
      "inputs": [],
      "name": "getCards",
      "outputs": [
        {
          "name": "",
          "type": "uint8[]"
        }
      ],
      "payable": false,
      "stateMutability": "view",
      "type": "function"
    },
    {
      "constant": true,
      "inputs": [
        {
          "name": "cardId",
          "type": "uint8"
        }
      ],
      "name": "getCardDetails",
      "outputs": [
        {
          "name": "id",
          "type": "uint8"
        },
        {
          "name": "price",
          "type": "uint256"
        },
        {
          "name": "priceLease",
          "type": "uint256"
        },
        {
          "name": "leaseDuration",
          "type": "uint256"
        },
        {
          "name": "availableBuy",
          "type": "bool"
        },
        {
          "name": "availableLease",
          "type": "bool"
        }
      ],
      "payable": false,
      "stateMutability": "view",
      "type": "function"
    },
    {
      "constant": false,
      "inputs": [
        {
          "name": "to",
          "type": "address"
        },
        {
          "name": "cardId",
          "type": "uint8"
        }
      ],
      "name": "transferCardOwnership",
      "outputs": [
        {
          "name": "success",
          "type": "bool"
        }
      ],
      "payable": false,
      "stateMutability": "nonpayable",
      "type": "function"
    },
    {
      "constant": false,
      "inputs": [
        {
          "name": "cardId",
          "type": "uint8"
        },
        {
          "name": "title",
          "type": "string"
        },
        {
          "name": "url",
          "type": "string"
        },
        {
          "name": "image",
          "type": "string"
        }
      ],
      "name": "buyCard",
      "outputs": [
        {
          "name": "success",
          "type": "bool"
        }
      ],
      "payable": true,
      "stateMutability": "payable",
      "type": "function"
    },
    {
      "constant": true,
      "inputs": [],
      "name": "getCardsDetails",
      "outputs": [
        {
          "name": "",
          "type": "uint8[]"
        }
      ],
      "payable": false,
      "stateMutability": "view",
      "type": "function"
    },
    {
      "constant": false,
      "inputs": [
        {
          "name": "cardId",
          "type": "uint8"
        },
        {
          "name": "flag",
          "type": "bool"
        }
      ],
      "name": "setNSFW",
      "outputs": [
        {
          "name": "success",
          "type": "bool"
        }
      ],
      "payable": false,
      "stateMutability": "nonpayable",
      "type": "function"
    },
    {
      "constant": false,
      "inputs": [
        {
          "name": "cardId",
          "type": "uint8"
        }
      ],
      "name": "cancelSellCard",
      "outputs": [
        {
          "name": "success",
          "type": "bool"
        }
      ],
      "payable": false,
      "stateMutability": "nonpayable",
      "type": "function"
    },
    {
      "constant": true,
      "inputs": [
        {
          "name": "cardId",
          "type": "uint8"
        }
      ],
      "name": "getLastLease",
      "outputs": [
        {
          "name": "leaseIndex",
          "type": "uint256"
        },
        {
          "name": "tenant",
          "type": "address"
        },
        {
          "name": "untilBlock",
          "type": "uint256"
        },
        {
          "name": "title",
          "type": "string"
        },
        {
          "name": "url",
          "type": "string"
        },
        {
          "name": "image",
          "type": "string"
        }
      ],
      "payable": false,
      "stateMutability": "view",
      "type": "function"
    },
    {
      "inputs": [
        {
          "name": "_contractOwner",
          "type": "address"
        }
      ],
      "payable": false,
      "stateMutability": "nonpayable",
      "type": "constructor"
    },
    {
      "anonymous": false,
      "inputs": [
        {
          "indexed": false,
          "name": "cardId",
          "type": "uint8"
        }
      ],
      "name": "Buy",
      "type": "event"
    }
  ],
  "bytecode": "0x6060604052670de0b6b3a764000060055560646006556103e8600755735adf43dd006c6c36506e2b2dfa352e60002d22dc600960006101000a81548173ffffffffffffffffffffffffffffffffffffffff021916908373ffffffffffffffffffffffffffffffffffffffff160217905550341561007b57600080fd5b604051602080612c0383398101604052808051906020019091905050600073ffffffffffffffffffffffffffffffffffffffff168173ffffffffffffffffffffffffffffffffffffffff16141515156100d357600080fd5b80600860006101000a81548173ffffffffffffffffffffffffffffffffffffffff021916908373ffffffffffffffffffffffffffffffffffffffff16021790555050612adf806101246000396000f300606060405260043610610112576000357c0100000000000000000000000000000000000000000000000000000000900463ffffffff16806309004eb11461011757806312065fe0146102d95780632cefc429146103025780633ccfd60b1461034957806344fd584d1461037657806379081feb146103b45780637b65d0ec146103ee5780637db33f99146104ea5780638014f2381461053a5780638df793d6146106415780638f6f32751461073d578063a7f58c24146108fe578063b0df9e5314610938578063b7b2a009146109a2578063bc2fe07b14610a0d578063c02d014014610a6a578063d5bd57a114610b66578063e6591f4e14610bd0578063ec591b2014610c19578063f0d8e96814610c57575b600080fd5b341561012257600080fd5b61013b600480803560ff16906020019091905050610e0f565b604051808760ff1660ff1681526020018673ffffffffffffffffffffffffffffffffffffffff1673ffffffffffffffffffffffffffffffffffffffff16815260200180602001806020018060200185151515158152602001848103845288818151815260200191508051906020019080838360005b838110156101cb5780820151818401526020810190506101b0565b50505050905090810190601f1680156101f85780820380516001836020036101000a031916815260200191505b50848103835287818151815260200191508051906020019080838360005b83811015610231578082015181840152602081019050610216565b50505050905090810190601f16801561025e5780820380516001836020036101000a031916815260200191505b50848103825286818151815260200191508051906020019080838360005b8381101561029757808201518184015260208101905061027c565b50505050905090810190601f1680156102c45780820380516001836020036101000a031916815260200191505b50995050505050505050505060405180910390f35b34156102e457600080fd5b6102ec61111f565b6040518082815260200191505060405180910390f35b341561030d57600080fd5b61032f600480803560ff16906020019091908035906020019091905050611165565b604051808215151515815260200191505060405180910390f35b341561035457600080fd5b61035c611264565b604051808215151515815260200191505060405180910390f35b341561038157600080fd5b61039a600480803560ff16906020019091905050611334565b604051808215151515815260200191505060405180910390f35b34156103bf57600080fd5b6103d8600480803560ff16906020019091905050611411565b6040518082815260200191505060405180910390f35b6104d0600480803560ff1690602001909190803590602001908201803590602001908080601f0160208091040260200160405190810160405280939291908181526020018383808284378201915050505050509190803590602001908201803590602001908080601f0160208091040260200160405190810160405280939291908181526020018383808284378201915050505050509190803590602001908201803590602001908080601f0160208091040260200160405190810160405280939291908181526020018383808284378201915050505050509190505061143a565b604051808215151515815260200191505060405180910390f35b34156104f557600080fd5b610520600480803560ff169060200190919080359060200190919080359060200190919050506115e4565b604051808215151515815260200191505060405180910390f35b341561054557600080fd5b610627600480803560ff1690602001909190803590602001908201803590602001908080601f0160208091040260200160405190810160405280939291908181526020018383808284378201915050505050509190803590602001908201803590602001908080601f0160208091040260200160405190810160405280939291908181526020018383808284378201915050505050509190803590602001908201803590602001908080601f0160208091040260200160405190810160405280939291908181526020018383808284378201915050505050509190505061178c565b604051808215151515815260200191505060405180910390f35b610723600480803560ff1690602001909190803590602001908201803590602001908080601f0160208091040260200160405190810160405280939291908181526020018383808284378201915050505050509190803590602001908201803590602001908080601f0160208091040260200160405190810160405280939291908181526020018383808284378201915050505050509190803590602001908201803590602001908080601f01602080910402602001604051908101604052809392919081815260200183838082843782019150505050505091905050611845565b604051808215151515815260200191505060405180910390f35b341561074857600080fd5b61076a600480803560ff16906020019091908035906020019091905050611be5565b604051808781526020018673ffffffffffffffffffffffffffffffffffffffff1673ffffffffffffffffffffffffffffffffffffffff168152602001858152602001806020018060200180602001848103845287818151815260200191508051906020019080838360005b838110156107f05780820151818401526020810190506107d5565b50505050905090810190601f16801561081d5780820380516001836020036101000a031916815260200191505b50848103835286818151815260200191508051906020019080838360005b8381101561085657808201518184015260208101905061083b565b50505050905090810190601f1680156108835780820380516001836020036101000a031916815260200191505b50848103825285818151815260200191508051906020019080838360005b838110156108bc5780820151818401526020810190506108a1565b50505050905090810190601f1680156108e95780820380516001836020036101000a031916815260200191505b50995050505050505050505060405180910390f35b341561090957600080fd5b610922600480803560ff16906020019091905050611f2f565b6040518082815260200191505060405180910390f35b341561094357600080fd5b61094b611f78565b6040518080602001828103825283818151815260200191508051906020019060200280838360005b8381101561098e578082015181840152602081019050610973565b505050509050019250505060405180910390f35b34156109ad57600080fd5b6109c6600480803560ff16906020019091905050611ffc565b604051808760ff1660ff1681526020018681526020018581526020018481526020018315151515815260200182151515158152602001965050505050505060405180910390f35b3415610a1857600080fd5b610a50600480803573ffffffffffffffffffffffffffffffffffffffff1690602001909190803560ff16906020019091905050612159565b604051808215151515815260200191505060405180910390f35b610b4c600480803560ff1690602001909190803590602001908201803590602001908080601f0160208091040260200160405190810160405280939291908181526020018383808284378201915050505050509190803590602001908201803590602001908080601f0160208091040260200160405190810160405280939291908181526020018383808284378201915050505050509190803590602001908201803590602001908080601f01602080910402602001604051908101604052809392919081815260200183838082843782019150505050505091905050612238565b604051808215151515815260200191505060405180910390f35b3415610b7157600080fd5b610b79612432565b6040518080602001828103825283818151815260200191508051906020019060200280838360005b83811015610bbc578082015181840152602081019050610ba1565b505050509050019250505060405180910390f35b3415610bdb57600080fd5b610bff600480803560ff1690602001909190803515159060200190919050506124b6565b604051808215151515815260200191505060405180910390f35b3415610c2457600080fd5b610c3d600480803560ff16906020019091905050612577565b604051808215151515815260200191505060405180910390f35b3415610c6257600080fd5b610c7b600480803560ff16906020019091905050612654565b604051808781526020018673ffffffffffffffffffffffffffffffffffffffff1673ffffffffffffffffffffffffffffffffffffffff168152602001858152602001806020018060200180602001848103845287818151815260200191508051906020019080838360005b83811015610d01578082015181840152602081019050610ce6565b50505050905090810190601f168015610d2e5780820380516001836020036101000a031916815260200191505b50848103835286818151815260200191508051906020019080838360005b83811015610d67578082015181840152602081019050610d4c565b50505050905090810190601f168015610d945780820380516001836020036101000a031916815260200191505b50848103825285818151815260200191508051906020019080838360005b83811015610dcd578082015181840152602081019050610db2565b50505050905090810190601f168015610dfa5780820380516001836020036101000a031916815260200191505b50995050505050505050505060405180910390f35b600080610e1a612980565b610e22612980565b610e2a612980565b60008660018160ff1610158015610e45575060648160ff1611155b1515610e5057600080fd5b600160008960ff1660ff16815260200190815260200160002060000160009054906101000a900460ff16600160008a60ff1660ff16815260200190815260200160002060000160019054906101000a900473ffffffffffffffffffffffffffffffffffffffff16600160008b60ff1660ff168152602001908152602001600020600101600160008c60ff1660ff168152602001908152602001600020600201600160008d60ff1660ff168152602001908152602001600020600301600160008e60ff1660ff16815260200190815260200160002060040160009054906101000a900460ff16838054600181600116156101000203166002900480601f016020809104026020016040519081016040528092919081815260200182805460018160011615610100020316600290048015610fca5780601f10610f9f57610100808354040283529160200191610fca565b820191906000526020600020905b815481529060010190602001808311610fad57829003601f168201915b50505050509350828054600181600116156101000203166002900480601f0160208091040260200160405190810160405280929190818152602001828054600181600116156101000203166002900480156110665780601f1061103b57610100808354040283529160200191611066565b820191906000526020600020905b81548152906001019060200180831161104957829003601f168201915b50505050509250818054600181600116156101000203166002900480601f0160208091040260200160405190810160405280929190818152602001828054600181600116156101000203166002900480156111025780601f106110d757610100808354040283529160200191611102565b820191906000526020600020905b8154815290600101906020018083116110e557829003601f168201915b505050505091509650965096509650965096505091939550919395565b60008060003373ffffffffffffffffffffffffffffffffffffffff1673ffffffffffffffffffffffffffffffffffffffff16815260200190815260200160002054905090565b60008260018160ff1610158015611180575060648160ff1611155b151561118b57600080fd5b83600160008260ff1660ff16815260200190815260200160002060000160019054906101000a900473ffffffffffffffffffffffffffffffffffffffff1673ffffffffffffffffffffffffffffffffffffffff163373ffffffffffffffffffffffffffffffffffffffff1614151561120257600080fd5b83600360008760ff1660ff168152602001908152602001600020600101819055506001600360008760ff1660ff16815260200190815260200160002060040160006101000a81548160ff02191690831515021790555060019250505092915050565b6000806000803373ffffffffffffffffffffffffffffffffffffffff1673ffffffffffffffffffffffffffffffffffffffff16815260200190815260200160002054905060008060003373ffffffffffffffffffffffffffffffffffffffff1673ffffffffffffffffffffffffffffffffffffffff168152602001908152602001600020819055503373ffffffffffffffffffffffffffffffffffffffff166108fc829081150290604051600060405180830381858888f19350505050151561132c57600080fd5b600191505090565b60008160018160ff161015801561134f575060648160ff1611155b151561135a57600080fd5b82600160008260ff1660ff16815260200190815260200160002060000160019054906101000a900473ffffffffffffffffffffffffffffffffffffffff1673ffffffffffffffffffffffffffffffffffffffff163373ffffffffffffffffffffffffffffffffffffffff161415156113d157600080fd5b6000600360008660ff1660ff16815260200190815260200160002060040160016101000a81548160ff021916908315150217905550600192505050919050565b6000600360008360ff1660ff168152602001908152602001600020600501805490509050919050565b6000808560018160ff1610158015611456575060648160ff1611155b151561146157600080fd5b61146a87611f2f565b915081341015151561147b57600080fd5b600073ffffffffffffffffffffffffffffffffffffffff16600160008960ff1660ff16815260200190815260200160002060000160019054906101000a900473ffffffffffffffffffffffffffffffffffffffff1673ffffffffffffffffffffffffffffffffffffffff161415156114f257600080fd5b6114ff873388888861269e565b506000600160008960ff1660ff16815260200190815260200160002060040160006101000a81548160ff021916908315150217905550611586600860009054906101000a900473ffffffffffffffffffffffffffffffffffffffff16600960009054906101000a900473ffffffffffffffffffffffffffffffffffffffff1660075461279b565b506115918783612856565b50600280548060010182816115a69190612994565b916000526020600020906020918282040191900689909190916101000a81548160ff021916908360ff16021790555050600192505050949350505050565b60008060008560018160ff1610158015611602575060648160ff1611155b151561160d57600080fd5b86600160008260ff1660ff16815260200190815260200160002060000160019054906101000a900473ffffffffffffffffffffffffffffffffffffffff1673ffffffffffffffffffffffffffffffffffffffff163373ffffffffffffffffffffffffffffffffffffffff1614151561168457600080fd5b600360008960ff1660ff16815260200190815260200160002060040160009054906101000a900460ff161515156116ba57600080fd5b6116c388611411565b9350600360008960ff1660ff1681526020019081526020016000206006016000858152602001908152602001600020600301549250438310151561170657600080fd5b86600360008a60ff1660ff168152602001908152602001600020600201819055506001600360008a60ff1660ff16815260200190815260200160002060040160016101000a81548160ff02191690831515021790555085600360008a60ff1660ff1681526020019081526020016000206003018190555060019450505050509392505050565b60008460018160ff16101580156117a7575060648160ff1611155b15156117b257600080fd5b85600160008260ff1660ff16815260200190815260200160002060000160019054906101000a900473ffffffffffffffffffffffffffffffffffffffff1673ffffffffffffffffffffffffffffffffffffffff163373ffffffffffffffffffffffffffffffffffffffff1614151561182957600080fd5b611836873388888861269e565b50600192505050949350505050565b60008060008060008060008a60018160ff1610158015611869575060648160ff1611155b151561187457600080fd5b600360008d60ff1660ff16815260200190815260200160002060040160019054906101000a900460ff1615156118a957600080fd5b600360008d60ff1660ff168152602001908152602001600020600201549650600360008d60ff1660ff16815260200190815260200160002060030154955085870294508434101515156118fb57600080fd5b60016119068d611411565b0193508543019250600160008d60ff1660ff16815260200190815260200160002060000160019054906101000a900473ffffffffffffffffffffffffffffffffffffffff16915061197c82600860009054906101000a900473ffffffffffffffffffffffffffffffffffffffff1660065461279b565b5083600360008e60ff1660ff16815260200190815260200160002060060160008681526020019081526020016000206000018190555033600360008e60ff1660ff168152602001908152602001600020600601600086815260200190815260200160002060010160006101000a81548173ffffffffffffffffffffffffffffffffffffffff021916908373ffffffffffffffffffffffffffffffffffffffff16021790555084600360008e60ff1660ff16815260200190815260200160002060060160008681526020019081526020016000206002018190555082600360008e60ff1660ff1681526020019081526020016000206006016000868152602001908152602001600020600301819055508a600360008e60ff1660ff16815260200190815260200160002060060160008681526020019081526020016000206004019080519060200190611acf9291906129ce565b5089600360008e60ff1660ff16815260200190815260200160002060060160008681526020019081526020016000206005019080519060200190611b149291906129ce565b5088600360008e60ff1660ff16815260200190815260200160002060060160008681526020019081526020016000206006019080519060200190611b599291906129ce565b506000600360008e60ff1660ff16815260200190815260200160002060040160016101000a81548160ff021916908315150217905550600360008d60ff1660ff1681526020019081526020016000206005018054806001018281611bbd9190612a4e565b9160005260206000209001600086909190915055506001975050505050505050949350505050565b6000806000611bf2612980565b611bfa612980565b611c02612980565b600360008960ff1660ff168152602001908152602001600020600601600088815260200190815260200160002060000154600360008a60ff1660ff168152602001908152602001600020600601600089815260200190815260200160002060010160009054906101000a900473ffffffffffffffffffffffffffffffffffffffff16600360008b60ff1660ff16815260200190815260200160002060060160008a815260200190815260200160002060030154600360008c60ff1660ff16815260200190815260200160002060060160008b8152602001908152602001600020600401600360008d60ff1660ff16815260200190815260200160002060060160008c8152602001908152602001600020600501600360008e60ff1660ff16815260200190815260200160002060060160008d8152602001908152602001600020600601828054600181600116156101000203166002900480601f016020809104026020016040519081016040528092919081815260200182805460018160011615610100020316600290048015611dda5780601f10611daf57610100808354040283529160200191611dda565b820191906000526020600020905b815481529060010190602001808311611dbd57829003601f168201915b50505050509250818054600181600116156101000203166002900480601f016020809104026020016040519081016040528092919081815260200182805460018160011615610100020316600290048015611e765780601f10611e4b57610100808354040283529160200191611e76565b820191906000526020600020905b815481529060010190602001808311611e5957829003601f168201915b50505050509150808054600181600116156101000203166002900480601f016020809104026020016040519081016040528092919081815260200182805460018160011615610100020316600290048015611f125780601f10611ee757610100808354040283529160200191611f12565b820191906000526020600020905b815481529060010190602001808311611ef557829003601f168201915b505050505090509550955095509550955095509295509295509295565b60008160018160ff1610158015611f4a575060648160ff1611155b1515611f5557600080fd5b60018360ff16036064600554811515611f6a57fe5b040260055403915050919050565b611f80612a7a565b6002805480602002602001604051908101604052809291908181526020018280548015611ff257602002820191906000526020600020906000905b82829054906101000a900460ff1660ff1681526020019060010190602082600001049283019260010382029150808411611fbb5790505b5050505050905090565b60008060008060008060008760018160ff1610158015612020575060648160ff1611155b151561202b57600080fd5b6000600360008b60ff1660ff16815260200190815260200160002060000160009054906101000a900460ff1660ff16148061208c5750600360008a60ff1660ff16815260200190815260200160002060040160009054906101000a900460ff165b1561209657600191505b600360008a60ff1660ff16815260200190815260200160002060000160009054906101000a900460ff16600360008b60ff1660ff16815260200190815260200160002060010154600360008c60ff1660ff16815260200190815260200160002060020154600360008d60ff1660ff1681526020019081526020016000206003015485600360008f60ff1660ff16815260200190815260200160002060040160019054906101000a900460ff16975097509750975097509750505091939550919395565b600081600160008260ff1660ff16815260200190815260200160002060000160019054906101000a900473ffffffffffffffffffffffffffffffffffffffff1673ffffffffffffffffffffffffffffffffffffffff163373ffffffffffffffffffffffffffffffffffffffff161415156121d257600080fd5b83600160008560ff1660ff16815260200190815260200160002060000160016101000a81548173ffffffffffffffffffffffffffffffffffffffff021916908373ffffffffffffffffffffffffffffffffffffffff160217905550600191505092915050565b60008060008660018160ff1610158015612256575060648160ff1611155b151561226157600080fd5b600073ffffffffffffffffffffffffffffffffffffffff16600160008a60ff1660ff16815260200190815260200160002060000160019054906101000a900473ffffffffffffffffffffffffffffffffffffffff1673ffffffffffffffffffffffffffffffffffffffff16141515156122d957600080fd5b600360008960ff1660ff16815260200190815260200160002060040160009054906101000a900460ff16151561230e57600080fd5b600360008960ff1660ff16815260200190815260200160002060010154925082341015151561233c57600080fd5b600160008960ff1660ff16815260200190815260200160002060000160019054906101000a900473ffffffffffffffffffffffffffffffffffffffff1691506123aa82600860009054906101000a900473ffffffffffffffffffffffffffffffffffffffff1660065461279b565b506123b8883389898961269e565b506000600160008a60ff1660ff16815260200190815260200160002060040160006101000a81548160ff0219169083151502179055506000600360008a60ff1660ff16815260200190815260200160002060040160006101000a81548160ff02191690831515021790555060019350505050949350505050565b61243a612a7a565b60048054806020026020016040519081016040528092919081815260200182805480156124ac57602002820191906000526020600020906000905b82829054906101000a900460ff1660ff16815260200190600101906020826000010492830192600103820291508084116124755790505b5050505050905090565b60008260018160ff16101580156124d1575060648160ff1611155b15156124dc57600080fd5b600860009054906101000a900473ffffffffffffffffffffffffffffffffffffffff1673ffffffffffffffffffffffffffffffffffffffff163373ffffffffffffffffffffffffffffffffffffffff1614151561253857600080fd5b82600160008660ff1660ff16815260200190815260200160002060040160006101000a81548160ff021916908315150217905550600191505092915050565b60008160018160ff1610158015612592575060648160ff1611155b151561259d57600080fd5b82600160008260ff1660ff16815260200190815260200160002060000160019054906101000a900473ffffffffffffffffffffffffffffffffffffffff1673ffffffffffffffffffffffffffffffffffffffff163373ffffffffffffffffffffffffffffffffffffffff1614151561261457600080fd5b6000600360008660ff1660ff16815260200190815260200160002060040160006101000a81548160ff021916908315150217905550600192505050919050565b6000806000612661612980565b612669612980565b612671612980565b600061267c88611411565b90506126888882611be5565b9650965096509650965096505091939550919395565b600084600160008860ff1660ff16815260200190815260200160002060000160016101000a81548173ffffffffffffffffffffffffffffffffffffffff021916908373ffffffffffffffffffffffffffffffffffffffff16021790555083600160008860ff1660ff168152602001908152602001600020600101908051906020019061272b9291906129ce565b5082600160008860ff1660ff168152602001908152602001600020600201908051906020019061275c9291906129ce565b5081600160008860ff1660ff168152602001908152602001600020600301908051906020019061278d9291906129ce565b506001905095945050505050565b60008060006127aa3485612966565b91508134039050806000808873ffffffffffffffffffffffffffffffffffffffff1673ffffffffffffffffffffffffffffffffffffffff16815260200190815260200160002060008282540192505081905550816000808773ffffffffffffffffffffffffffffffffffffffff1673ffffffffffffffffffffffffffffffffffffffff168152602001908152602001600020600082825401925050819055506001925050509392505050565b600082600360008560ff1660ff16815260200190815260200160002060000160006101000a81548160ff021916908360ff16021790555081600360008560ff1660ff168152602001908152602001600020600101819055506000600360008560ff1660ff16815260200190815260200160002060040160006101000a81548160ff0219169083151502179055506000600360008560ff1660ff16815260200190815260200160002060040160016101000a81548160ff0219169083151502179055506004805480600101828161292c9190612994565b916000526020600020906020918282040191900685909190916101000a81548160ff021916908360ff160217905550506001905092915050565b600061271082840281151561297757fe5b04905092915050565b602060405190810160405280600081525090565b8154818355818115116129c957601f016020900481601f016020900483600052602060002091820191016129c89190612a8e565b5b505050565b828054600181600116156101000203166002900490600052602060002090601f016020900481019282601f10612a0f57805160ff1916838001178555612a3d565b82800160010185558215612a3d579182015b82811115612a3c578251825591602001919060010190612a21565b5b509050612a4a9190612a8e565b5090565b815481835581811511612a7557818360005260206000209182019101612a749190612a8e565b5b505050565b602060405190810160405280600081525090565b612ab091905b80821115612aac576000816000905550600101612a94565b5090565b905600a165627a7a723058207b5b351e8e34d0b36d3fc522a57505466d6da8fc9a72f07a3c53ced844f06c0c0029",
  "source": "pragma solidity ^0.4.18;\r\n\r\ncontract WeiCards {\r\n\r\n    /// Lease record, store card tenants details\r\n    /// and lease details\r\n    struct LeaseCard {\r\n      uint id;\r\n      address tenant;\r\n      uint price;\r\n      uint untilBlock;\r\n      string title;\r\n      string url;\r\n      string image;\r\n    }\r\n\r\n    /// Record card details\r\n    struct cardDetails {\r\n      uint8 id;\r\n      uint price;\r\n      uint priceLease; // price per block\r\n      uint leaseDuration; // in block\r\n      bool availableBuy;\r\n      bool availableLease;\r\n      uint[] leaseList;\r\n      mapping(uint => LeaseCard) leaseCardStructs;\r\n    }\r\n\r\n    /// Record card\r\n    struct Card {\r\n      uint8 id;\r\n      address owner;\r\n      string title;\r\n      string url;\r\n      string image;\r\n      bool nsfw;\r\n    }\r\n    \r\n    /// Users pending withdrawals\r\n    mapping(address => uint) pendingWithdrawals;\r\n\r\n    mapping(uint8 => Card) cardStructs; // random access by card key\r\n    uint8[] cardList; // list of announce keys so we can enumerate them\r\n\r\n    mapping(uint8 => cardDetails) cardDetailsStructs; // random access by card details key\r\n    uint8[] cardDetailsList; // list of cards details keys so we can enumerate them\r\n\r\n    /// Initial card price\r\n    uint initialCardPrice = 1 ether;\r\n\r\n    /// Owner cut (1%) . This cut only apply on a user-to-user card transaction\r\n    uint ownerBuyCut = 100;\r\n    /// GiveETH cut (10%)\r\n    uint giveEthCut = 1000;\r\n\r\n    /// contractOwner can withdraw the funds\r\n    address contractOwner;\r\n    /// Giveth address\r\n    address giveEthAddress = 0x5ADF43DD006c6C36506e2b2DFA352E60002d22Dc;\r\n    \r\n    /// Contract constructor\r\n    function WeiCards(address _contractOwner) public {\r\n      require(_contractOwner != address(0));\r\n      contractOwner = _contractOwner;\r\n    }\r\n\r\n    modifier onlyContractOwner()\r\n    {\r\n       // Throws if called by any account other than the contract owner\r\n        require(msg.sender == contractOwner);\r\n        _;\r\n    }\r\n\r\n    modifier onlyCardOwner(uint8 cardId)\r\n    {\r\n       // Throws if called by any account other than the card owner\r\n        require(msg.sender == cardStructs[cardId].owner);\r\n        _;\r\n    }\r\n\r\n    modifier onlyValidCard(uint8 cardId)\r\n    {\r\n       // Throws if card is not valid\r\n        require(cardId >= 1 && cardId <= 100);\r\n        _;\r\n    }\r\n    \r\n    /// Return cardList array\r\n    function getCards() public view\r\n        returns(uint8[])\r\n    {\r\n      return cardList;\r\n    }\r\n\r\n    /// Return cardDetailsList array\r\n    function getCardsDetails() public view\r\n        returns(uint8[])\r\n    {\r\n      return cardDetailsList;\r\n    }\r\n\r\n    /// Return card details by id\r\n    function getCardDetails(uint8 cardId) view public\r\n        onlyValidCard(cardId)\r\n        returns (uint8 id, uint price, uint priceLease, uint leaseDuration, bool availableBuy, bool availableLease)\r\n    {\r\n        bool _buyAvailability;\r\n        if (cardDetailsStructs[cardId].id == 0 || cardDetailsStructs[cardId].availableBuy) {\r\n            _buyAvailability = true;\r\n        }\r\n\r\n        return(\r\n          cardDetailsStructs[cardId].id,\r\n          cardDetailsStructs[cardId].price,\r\n          cardDetailsStructs[cardId].priceLease,\r\n          cardDetailsStructs[cardId].leaseDuration,\r\n          _buyAvailability,\r\n          cardDetailsStructs[cardId].availableLease\r\n        );\r\n    }\r\n\r\n    /// Return card by id\r\n    function getCard(uint8 cardId) view public\r\n        onlyValidCard(cardId)\r\n        returns (uint8 id, address owner, string title, string url, string image, bool nsfw)\r\n    {\r\n        return(\r\n          cardStructs[cardId].id,\r\n          cardStructs[cardId].owner,\r\n          cardStructs[cardId].title,\r\n          cardStructs[cardId].url,\r\n          cardStructs[cardId].image,\r\n          cardStructs[cardId].nsfw\r\n        );\r\n    }\r\n    \r\n    /// This is called on the initial buy card, user to user buy is at buyCard()\r\n    /// Amount is sent to contractOwner balance and giveth get 10% of this amount\r\n    function initialBuyCard(uint8 cardId, string title, string url, string image) public\r\n        onlyValidCard(cardId)\r\n        payable\r\n        returns (bool success)\r\n    {\r\n        // Check sent amount\r\n        uint price = computeInitialPrice(cardId);\r\n        require(msg.value >= price);\r\n        // If owner is 0x0, then we are sure that\r\n        // this is the initial buy\r\n        require(cardStructs[cardId].owner == address(0));\r\n\r\n        // Fill card\r\n        _fillCardStruct(cardId, msg.sender, title, url, image);\r\n        // Set nsfw flag to false\r\n        cardStructs[cardId].nsfw = false;\r\n        // Contract credit 10% of price to GiveETH\r\n         _applyShare(contractOwner, giveEthAddress, giveEthCut);\r\n        // Initialize card details\r\n        _initCardDetails(cardId, price);\r\n        // Add the card to cardList\r\n        cardList.push(cardId);\r\n        return true;\r\n    }\r\n\r\n    /// Perform a user to user buy transaction\r\n    /// Contract owner takes 1% cut on each of this transaction\r\n    function buyCard(uint8 cardId, string title, string url, string image) public\r\n        onlyValidCard(cardId)\r\n        payable\r\n        returns (bool success)\r\n    {\r\n        // Check that this is not an initial buy, i.e. that the\r\n        // card belongs to someone\r\n        require(cardStructs[cardId].owner != address(0));\r\n        // Check if card is on sale\r\n        require(cardDetailsStructs[cardId].availableBuy);\r\n        // Check sent amount\r\n        uint price = cardDetailsStructs[cardId].price;\r\n        require(msg.value >= price);\r\n        \r\n        address previousOwner = cardStructs[cardId].owner;\r\n        // Take 1% cut on buy\r\n        _applyShare(previousOwner, contractOwner, ownerBuyCut);\r\n        // Fill card\r\n        _fillCardStruct(cardId, msg.sender, title, url, image);\r\n        // Set nsfw flag to false\r\n        cardStructs[cardId].nsfw = false;\r\n        // Disable sell status\r\n        cardDetailsStructs[cardId].availableBuy = false;\r\n        return true;\r\n    }\r\n\r\n    /// Allow card owner to edit his card informations\r\n    function editCard(uint8 cardId, string title, string url, string image) public\r\n        onlyValidCard(cardId)\r\n        onlyCardOwner(cardId)\r\n        returns (bool success)\r\n    {\r\n        // Fill card\r\n        _fillCardStruct(cardId, msg.sender, title, url, image);\r\n        // Disable sell status\r\n        return true;\r\n    }\r\n\r\n    /// Allow card owner to set his card on sale at specific price\r\n    function sellCard(uint8 cardId, uint price) public\r\n        onlyValidCard(cardId)\r\n        onlyCardOwner(cardId)\r\n        returns (bool success)\r\n    {\r\n        cardDetailsStructs[cardId].price = price;\r\n        cardDetailsStructs[cardId].availableBuy = true;\r\n        return true;\r\n    }\r\n\r\n    /// Allow card owner to cancel sell offer\r\n    function cancelSellCard(uint8 cardId) public\r\n        onlyValidCard(cardId)\r\n        onlyCardOwner(cardId)\r\n        returns (bool success)\r\n    {\r\n        cardDetailsStructs[cardId].availableBuy = false;\r\n        return true;\r\n    }\r\n\r\n    /// Allow card owner to set his card on lease at fixed price per block and duration\r\n    function setLeaseCard(uint8 cardId, uint priceLease, uint leaseDuration) public\r\n        onlyValidCard(cardId)\r\n        onlyCardOwner(cardId)\r\n        returns (bool success)\r\n    {\r\n        // Card cannot be on sale when setting lease\r\n        // cancelSellCard() first\r\n        require(!cardDetailsStructs[cardId].availableBuy);\r\n        // Card cannot be set on lease while currently leasing\r\n        uint _lastLeaseId = getCardLeaseLength(cardId);\r\n        uint _until = cardDetailsStructs[cardId].leaseCardStructs[_lastLeaseId].untilBlock;\r\n        require(_until < block.number);\r\n\r\n        cardDetailsStructs[cardId].priceLease = priceLease;\r\n        cardDetailsStructs[cardId].availableLease = true;\r\n        cardDetailsStructs[cardId].leaseDuration = leaseDuration;\r\n        return true;\r\n    }\r\n\r\n    /// Allow card owner to cancel lease offer\r\n    /// Note that this do not interrupt current lease if any\r\n    function cancelLeaseOffer(uint8 cardId) public\r\n        onlyValidCard(cardId)\r\n        onlyCardOwner(cardId)\r\n        returns (bool success)\r\n    {\r\n        cardDetailsStructs[cardId].availableLease = false;\r\n        return true;\r\n    }\r\n\r\n    /// Allow future tenant to lease a card\r\n    function leaseCard(uint8 cardId, string title, string url, string image) public\r\n        onlyValidCard(cardId)\r\n        payable\r\n        returns (bool success)\r\n    {\r\n        // Check that card is avaible to lease\r\n        require(cardDetailsStructs[cardId].availableLease);\r\n        // Get price (per block) and leaseDuration (block)\r\n        uint price = cardDetailsStructs[cardId].priceLease;\r\n        uint leaseDuration = cardDetailsStructs[cardId].leaseDuration;\r\n        uint totalAmount = price * leaseDuration;\r\n        // Check that amount sent is sufficient\r\n        require(msg.value >= totalAmount);\r\n        // Get new lease id\r\n        uint leaseId = getCardLeaseLength(cardId) + 1;\r\n        // Get the block number of lease end\r\n        uint untilBlock = block.number + leaseDuration;\r\n        // Take 1% cut on lease\r\n        address _cardOwner = cardStructs[cardId].owner;\r\n        _applyShare(_cardOwner, contractOwner, ownerBuyCut);\r\n        // Fill leaseCardStructs\r\n        cardDetailsStructs[cardId].leaseCardStructs[leaseId].id = leaseId;\r\n        cardDetailsStructs[cardId].leaseCardStructs[leaseId].tenant = msg.sender;\r\n        cardDetailsStructs[cardId].leaseCardStructs[leaseId].price = totalAmount;\r\n        cardDetailsStructs[cardId].leaseCardStructs[leaseId].untilBlock = untilBlock;\r\n        cardDetailsStructs[cardId].leaseCardStructs[leaseId].title = title;\r\n        cardDetailsStructs[cardId].leaseCardStructs[leaseId].url = url;\r\n        cardDetailsStructs[cardId].leaseCardStructs[leaseId].image = image;\r\n        // Leases are now unavailable for this card\r\n        cardDetailsStructs[cardId].availableLease = false;\r\n        // Add lease to leases list of correspondant cardDetails\r\n        cardDetailsStructs[cardId].leaseList.push(leaseId);\r\n        return true;\r\n    }\r\n\r\n    /// Get last lease from a card\r\n    function getLastLease(uint8 cardId) public constant\r\n        returns(uint leaseIndex, address tenant, uint untilBlock, string title, string url, string image)\r\n    {\r\n        uint _leaseIndex = getCardLeaseLength(cardId);\r\n        return getLease(cardId, _leaseIndex);\r\n    }\r\n\r\n    /// Get lease from card\r\n    function getLease(uint8 cardId, uint leaseId) public constant\r\n        returns(uint leaseIndex, address tenant, uint untilBlock, string title, string url, string image)\r\n    {\r\n        return(\r\n            cardDetailsStructs[cardId].leaseCardStructs[leaseId].id,\r\n            cardDetailsStructs[cardId].leaseCardStructs[leaseId].tenant,\r\n            cardDetailsStructs[cardId].leaseCardStructs[leaseId].untilBlock,\r\n            cardDetailsStructs[cardId].leaseCardStructs[leaseId].title,\r\n            cardDetailsStructs[cardId].leaseCardStructs[leaseId].url,\r\n            cardDetailsStructs[cardId].leaseCardStructs[leaseId].image\r\n        );\r\n    }\r\n\r\n    /// Get lease list from a card\r\n    function getCardLeaseLength(uint8 cardId) public constant\r\n        returns(uint cardLeasesCount)\r\n    {\r\n        return(cardDetailsStructs[cardId].leaseList.length);\r\n    }\r\n\r\n    /// Transfer the ownership of a card\r\n    function transferCardOwnership(address to, uint8 cardId) public\r\n      onlyCardOwner(cardId)\r\n      returns (bool success)\r\n    {\r\n        // Transfer card ownership\r\n        cardStructs[cardId].owner = to;\r\n        return true;\r\n    }\r\n    \r\n    /// Return balance from sender\r\n    function getBalance() public view\r\n      returns (uint amount)\r\n    {\r\n        return pendingWithdrawals[msg.sender];\r\n    }\r\n    \r\n    /// Allow address to withdraw their balance\r\n    function withdraw() public\r\n        returns (bool) \r\n    {\r\n        uint amount = pendingWithdrawals[msg.sender];\r\n        // Remember to zero the pending refund before\r\n        // sending to prevent re-entrancy attacks\r\n        pendingWithdrawals[msg.sender] = 0;\r\n        msg.sender.transfer(amount);\r\n        return true;\r\n    }\r\n    \r\n    /// Compute initial card price (in wei)\r\n    function computeInitialPrice(uint8 cardId) public view\r\n        onlyValidCard(cardId)\r\n        returns (uint price)\r\n    {\r\n        // 1 ether - 0.01 ether * (cardId - 1)\r\n        return initialCardPrice - ((initialCardPrice / 100) * (uint256(cardId) - 1));\r\n    }\r\n\r\n    /// Allow contract owner to set NSFW flag on a card\r\n    function setNSFW(uint8 cardId, bool flag) public\r\n        onlyValidCard(cardId)\r\n        onlyContractOwner()\r\n        returns (bool success)\r\n    {\r\n        cardStructs[cardId].nsfw = flag;\r\n        return true;\r\n    }\r\n\r\n    /// Fill Card struct\r\n    function _fillCardStruct(uint8 _cardId, address _owner, string _title, string _url, string _image) internal\r\n        returns (bool success)\r\n    {\r\n        cardStructs[_cardId].owner = _owner;\r\n        cardStructs[_cardId].title = _title;\r\n        cardStructs[_cardId].url = _url;\r\n        cardStructs[_cardId].image = _image;\r\n        return true;\r\n    }\r\n\r\n    /// Initialize sell card for future\r\n    function _initCardDetails(uint8 cardId, uint price) internal\r\n        returns (bool success)\r\n    {\r\n        // priceLease, leaseDuration set to default value(= 0)\r\n        cardDetailsStructs[cardId].id = cardId;\r\n        cardDetailsStructs[cardId].price = price;\r\n        cardDetailsStructs[cardId].availableBuy = false;\r\n        cardDetailsStructs[cardId].availableLease = false;\r\n        cardDetailsList.push(cardId);\r\n        return true;\r\n    }\r\n\r\n    /// Send split amounts to respective balances\r\n    function _applyShare(address _seller, address _auctioneer, uint _cut) internal\r\n        returns (bool success)\r\n    {\r\n        // Compute share\r\n        uint256 auctioneerCut = _computeCut(msg.value, _cut);\r\n        uint256 sellerProceeds = msg.value - auctioneerCut;\r\n        // Credit seller balance\r\n        pendingWithdrawals[_seller] += sellerProceeds;\r\n        // Credit auctionner balance\r\n        pendingWithdrawals[_auctioneer] += auctioneerCut;\r\n        return true;\r\n    }\r\n\r\n    /// Compute _cut from a _price \r\n    function _computeCut(uint256 _price, uint256 _cut) internal pure\r\n        returns (uint256)\r\n    {\r\n        return _price * _cut / 10000;\r\n    }\r\n}",
  "sourcePath": "E:\\dev\\ethcards\\contracts\\WeiCards.sol",
  "compiler": {
    "name": "solc",
    "version": "0.4.18+commit.9cf6e910.Emscripten.clang"
  },
  "schemaVersion": "1.0.1",
  "updatedAt": "2017-12-23T23:16:44.849Z"
}